:100000000C945D000C9485000C9485000C94850084
:100010000C9485000C9485000C94550F0C9485006D
:100020000C9485000C9485000C9485000C9485003C
:100030000C9485000C9485000C9485000C9485002C
:100040000C94C3040C9485000C9433050C940D059A
:100050000C9485000C9485000C9485000C9485000C
:100060000C9485000C9485000000000024002700FB
:100070002A0000000000250028002B0004040404CE
:100080000404040402020202020203030303030342
:10009000010204081020408001020408102001021F
:1000A00004081020000000080002010000030407FB
:1000B0000000000000000000751011241FBECFEFEB
:1000C000D8E0DEBFCDBF11E0A0E0B1E0E2E5F4E2B0
:1000D00002C005900D92A234B107D9F722E0A2E444
:1000E000B1E001C01D92AF38B207E1F710E0CDE5F5
:1000F000D0E004C02197FE010E94FD11CC35D1074C
:10010000C9F70E94580F0C9427120C94000090E03D
:10011000FC01EC55FF4F2491FC01E057FF4F349157
:10012000FC01E458FF4FE491EE23C9F0222339F09B
:10013000233001F1A8F4213019F1223029F1F0E047
:10014000EE0FFF1FEE58FF4FA591B4918FB7F894B3
:10015000EC91611126C030953E233C938FBF0895EA
:100160002730A9F02830C9F0243049F78091800069
:100170008F7D03C0809180008F7780938000DFCFD8
:1001800084B58F7784BDDBCF84B58F7DFBCF809125
:10019000B0008F778093B000D2CF8091B0008F7D78
:1001A000F9CF3E2BDACFCF93DF9390E0FC01E057FD
:1001B000FF4F249184589F4FFC0184918823D1F0F4
:1001C00090E0880F991FFC01E859FF4FA591B49169
:1001D000FC01EE58FF4FC591D49161110EC09FB73D
:1001E000F8948C91E22FE0958E238C932881E22362
:1001F000E8839FBFDF91CF9108958FB7F894EC917A
:10020000E22BEC938FBFF6CFAF92BF92CF92DF92EB
:10021000EF92FF920F931F93CF93DF936C017B01BB
:100220008B01040F151FEB015E01AE18BF08C0174C
:10023000D10759F06991D601ED91FC910190F081BF
:10024000E02DC6010995892B79F7C501DF91CF9182
:100250001F910F91FF90EF90DF90CF90BF90AF90E4
:100260000895FC01538D448D252F30E0842F90E0BC
:10027000821B930B541710F0CF96089501970895A1
:10028000FC01918D828D981761F0A28DAE0FBF2F6A
:10029000B11D5D968C91928D9F5F9F73928F90E0C0
:1002A00008958FEF9FEF0895FC01918D828D98172F
:1002B00031F0828DE80FF11D858D90E008958FEF6C
:1002C0009FEF0895FC01918D228D892F90E0805C35
:1002D0009F4F821B91098F73992708958CE691E0B7
:1002E0000E94620121E0892B09F420E0822F089509
:1002F0000E946E0181110C940000089580E090E04E
:10030000892B11F00C9478010895FC01A48DA80F9D
:10031000B92FB11DA35ABF4F2C91848D90E0019647
:100320008F739927848FA689B7892C93A089B18967
:100330008C91837080648C93938D848D981306C008
:100340000288F389E02D80818F7D80830895EF926C
:10035000FF920F931F93CF93DF93EC0181E0888F7F
:100360009B8D8C8D98131AC0E889F989808185FF4F
:1003700015C09FB7F894EE89FF896083E889F989F1
:1003800080818370806480839FBF81E090E0DF91F3
:10039000CF911F910F91FF90EF900895F62E0B8D46
:1003A00010E00F5F1F4F0F731127E02E8C8D8E1101
:1003B0000CC00FB607FCFACFE889F989808185FF68
:1003C000F5CFCE010E948501F1CFEB8DEC0FFD2F13
:1003D000F11DE35AFF4FF0829FB7F8940B8FEA8923
:1003E000FB8980818062CFCFCF93DF93EC01888D32
:1003F0008823B9F0AA89BB89E889F9898C9185FDA0
:1004000003C0808186FD0DC00FB607FCF7CF8C912D
:1004100085FFF2CF808185FFEDCFCE010E9485015F
:10042000E9CFDF91CF910895FF920F931F93CF9360
:10043000DF93182F062FF42ED22F60E00E94870042
:10044000C8E06D2F661F6627661F8F2D0E948700EC
:10045000DD0F61E0802F0E94870060E0802F0E9406
:100460008700C15071F761E0812FDF91CF911F911B
:100470000F91FF900C948700CFEF80915C018F3F2C
:1004800039F480935301809354018093550132C015
:10049000809161018770833058F5813080F18091BF
:1004A000570190E1899F90011124809156018F702E
:1004B000822B809353018091590190E1899F900193
:1004C0001124809158018F70822B80935401809168
:1004D0005B0190E1899F9001112480915A018F70F6
:1004E000822B80935501109252011092510102C04B
:1004F000853060F083E090E00E94850ABECF1092C4
:1005000053011092540110925501F4CF8091510182
:100510009091520101968C3221E09207B8F49093A9
:1005200052018093510180914F019091500184318B
:100530009105A8F4C0935301C0935401C093550191
:1005400001969093500180934F01D4CF10925201A5
:10055000109251011092500110924F01E4CF8091FE
:10056000570190E1899F90011124809156018F706D
:10057000822B809353018091590190E1899F9001D2
:100580001124809158018F70822B809354018091A7
:100590005B0190E1899F9001112480915A018F7035
:1005A000822B73CF2091530148E069E08AE00E94DA
:1005B00014022091540145E066E087E00E94140295
:1005C0002091550142E063E084E00E9414028FE034
:1005D00090E00E94850AE6CFCF93DF93CDB7DEB7D8
:1005E0002C970FB6F894DEBF0FBECDBF11E034E6F6
:1005F000232E312C4AE0842E912CA12CB12C5CE3CB
:10060000452E512C612C712C8CE691E00E946201E8
:10061000892B09F43EC08CE691E00E944001909144
:100620004E01983080F4E92FF0E0E75EFC4F0C9427
:10063000FD11210357035A036203650368036B032B
:100640006E03853579F59F5F90934E01983008F1E0
:1006500090914D0180914601981313C080914B01F8
:1006600080936101C0904701D0904801E09049011A
:10067000F0904A0187708130A1F118F0853008F4BC
:100680008AC010924E01109246018CE691E00E94C1
:10069000F401809161018871803109F0D1C08FEF40
:1006A00080935C0181E090E00E94850AADCF809349
:1006B0004D01C9CF80934C0120914601820F809358
:1006C0004601C1CF80934B01F7CF80934A01F4CF0D
:1006D00080934901F1CF80934801EECF8093470189
:1006E000EBCFC701B60120EA36E841E050E00E94B6
:1006F000DB11CA01B901A50194010E94DB116093CD
:100700005601C701B60120E137E240E050E00E9407
:10071000DB11CA01B901A50194010E94DB116093AC
:100720005701C701B60128EE33E040E050E00E94D7
:10073000DB11CA01B901A50194010E94DB1160938C
:100740005801C701B60124E630E040E050E00E94C5
:10075000DB11CA01B901A50194010E94DB1160936C
:100760005901C701B601A50194010E94DB11F62EC3
:10077000CA01B901A50194010E94DB1160935A01DD
:10078000F0925B0110925D0110925E0110925F0188
:100790001092600176CFC701B60120E13EE040E053
:1007A00050E00E94DB11CA01B90128E130E040E0CD
:1007B00050E00E94DB1169837A838B839C83C7019D
:1007C000B601A30192010E94DB116D837E838F83AA
:1007D0009887CA01B901A30192010E94DB116987C0
:1007E0007A878B879C8769817A818B819C81A5011F
:1007F00094010E94DB112093560160935701698593
:100800007A858B859C85A50194010E94DB1120933C
:100810005801609359016D817E818F819885A50172
:1008200094010E94DB1120935A0160935B01C092F6
:100830005D01D0925E01E0925F01F092600121CFF4
:1008400081111CC080E480937C0080917A008064D8
:1008500080937A0080917A0086FDFCCF9091780099
:10086000809179008927982789279695879596956D
:100870008795803F08F014CF80EF12CF20914C0174
:10088000219FC001921B1124B1010E94C7116F5F0B
:100890007F4F60935C0106CF0F931F93ECE6F1E06E
:1008A000A089B18982E08C93A485B5851C92A68528
:1008B000B7858FEC8C93108EA489B58986E08C93D4
:1008C000A289B3898C9180618C93A289B3898C9120
:1008D00088608C93A289B3898C9180688C930288FC
:1008E000F389E02D80818F7D808360E08EE00E941F
:1008F000D30061E082E00E94D30061E083E00E94C7
:10090000D30061E084E00E94D30061E085E00E94B2
:10091000D30061E086E00E94D30061E087E00E949E
:10092000D30061E088E00E94D30061E089E00E948A
:10093000D30061E08AE00E94D300E3E5F1E08FEFAD
:1009400080838183828310E000E023E040E850E070
:1009500069E171E08CEE92E00E94C20C23E040E875
:1009600050E062E271E082ED92E00E94C20C23E06E
:1009700040E850E06CE271E08CE392E00E94C20C2F
:100980001F910F9108951F920F920FB60F9211248D
:100990002F933F938F939F93AF93BF9380912E029A
:1009A00090912F02A0913002B091310230912D022E
:1009B00023E0230F2D3758F50196A11DB11D20937B
:1009C0002D0280932E0290932F02A0933002B093B9
:1009D00031028091290290912A02A0912B02B091BC
:1009E0002C020196A11DB11D8093290290932A0229
:1009F000A0932B02B0932C02BF91AF919F918F9146
:100A00003F912F910F900FBE0F901F90189526E8E1
:100A1000230F0296A11DB11DD2CF1F920F920FB6C8
:100A20000F9211242F933F934F935F936F937F9374
:100A30008F939F93AF93BF93EF93FF938CE691E0D7
:100A40000E948501FF91EF91BF91AF919F918F918E
:100A50007F916F915F914F913F912F910F900FBEBA
:100A60000F901F9018951F920F920FB60F9211249E
:100A70002F938F939F93EF93FF93E0917C01F091DD
:100A80007D018081E0918201F091830182FD1BC094
:100A90009081809185018F5F8F73209186018217ED
:100AA00041F0E0918501F0E0E459FE4F958F80938D
:100AB0008501FF91EF919F918F912F910F900FBE24
:100AC0000F901F9018958081F4CF0FB6F8940F9275
:100AD000FC01928D0F900FBE81E0911180E008958E
:100AE000E0913402F09135028081811107C08FEFCF
:100AF0009FEF90932602809325020895E09134029F
:100B0000F09135020580F681E02D80819181F1CF51
:100B1000CF93DF93FC01A085B185828193812481ED
:100B20003581EC013D832C83C481D5819B838A83ED
:100B300011968D919C9112978E179F0721F4129612
:100B4000DC93CE931197118610868C9181508C93F3
:100B50008C91DF91CF9108950F931F93CF93DF93E3
:100B60008C01FB0180819181D80113968F3F9807FA
:100B7000F1F4E801AF81B88512968D919C9113979D
:100B800093838283EC01FD83EC83B583A483139666
:100B9000FC93EE93129711870087F80180818F5F95
:100BA0008083DF91CF911F910F910895D901129603
:100BB0002D913C911397E90148815981841795073C
:100BC000A8F7DACFFC010396928381832FEF3FEFE2
:100BD0003483238396838583908787831082089547
:100BE000FC0173836283918780874617570790F0D3
:100BF000421B530B8485958548175907C8F4BF01DC
:100C00006E5F7F4F8091090290910A020E94AC05AD
:100C100080E008954217530718F46217730740F4F1
:100C2000BF016E5F7F4F80910B0290910C02EECF5F
:100C300081E00895EF92FF920F931F93CF93DF937C
:100C4000EC018B017A016C857D85600F711F980125
:100C5000A701CE010E94F005811107C0DF91CF915D
:100C60001F910F91FF90EF9008958C859D85080F3F
:100C7000191FE889F989CE010995E5CFEF92FF9216
:100C80000F931F93CF93DF938C017B01E0910B02B5
:100C9000F0910C020580F681E02DC681D781CE014E
:100CA00002960E9488058A8982FF0FC0A701B801B9
:100CB000CE010E941A06E889F989CE01DF91CF9111
:100CC0001F910F91FF90EF9009948E7F8A8BF3CF45
:100CD000E0910B02F0910C02808181110DC0809196
:100CE000090290910A0290930C0280930B02F093F8
:100CF0000A02E093090208950580F681E02D6FEF66
:100D00007FEF808191810E943E06E2CFFF920F9398
:100D10001F93CF93DF93EC01F62E009123021091E5
:100D20002402809142019091430102960E9488051D
:100D3000CF3FDC07E9F5FF20D9F1E0913702F091D0
:100D40003802A0914201B09143011596FC93EE93B5
:100D50001497A0914201B091430184819581179627
:100D60009C938E9316978091420190914301A481A8
:100D7000B581029613969C938E93129780914201AF
:100D800090914301029695838483E0914201F09112
:100D9000430186E392E093878287809136028F5FDA
:100DA00080933602DF91CF911F910F91FF900895AC
:100DB000C00FD11FE0914201F0914301D383C28360
:100DC0006091420170914301C017D10768F480918E
:100DD0003202909133026E5F7F4FDF91CF911F916E
:100DE0000F91FF900C94AC058091340290913502E4
:100DF0006E5F7F4F0E94AC05809125029091260284
:100E0000C817D90778F6D0932602C0932502CACF17
:100E1000CF93DF93DC011596ED91FC910680F7816D
:100E2000E02DA489B5898685978520893189EC01D3
:100E30003D832C83C089D1899B838A83CF010C9603
:100E400011962D913C9112972817390721F412968B
:100E5000DC93CE931197158A148A2C9121502C93F0
:100E600020916A01211157C0A285B38584819581A3
:100E700026813781EC013D832C83C681D7819B83FA
:100E80008A83CF01029611962D913C9112972817D3
:100E9000390721F41296DC93CE93119713861286AC
:100EA0002C9121502C93C689209187022C1710F485
:100EB000C093870229E02C9FE0011124CD59DD4F1A
:100EC0000980DA81C02DD583C4834C815D8157832D
:100ED0004683AC81BD8113969C938E9312979D831C
:100EE0008C83A689A29FD0011124AD59BD4FB38731
:100EF000A2878C918F5F8C93A0914201B0914301A6
:100F0000968956968C91891730F581E080936B0114
:100F1000DF91CF910895A0914902B0914A02B7871D
:100F2000A68714962D913C911597318B208B1496A2
:100F3000CD91DC9115979B838A8315969C938E9314
:100F4000149788E492E0958B848B809148028F5FA0
:100F500080934802D1CF80E0DBCFEF92FF920F93D6
:100F60001F93CF93DF93EC010FB6F8940F921E8D71
:100F70007C0181E1E80EF11C01E01116D4F08FEF45
:100F80008E8F0F900FBE0FB6F8940F921D8D7E01BD
:100F900088E0E80EF11C01E01116B4F08FEF8D8FA0
:100FA0000F900FBEDF91CF911F910F91FF90EF90A7
:100FB00008958989882319F3C7010E9408078111C0
:100FC00000936B011150D9CF8885882339F3C7016D
:100FD0000E940807811100936B011150DDCF0FB6FD
:100FE000F8940F9280912302909124020F900FBEEB
:100FF000089580916A018F5F80936A0108950F922E
:101000000FB6F8940F921F9211242F923F924F9295
:101010005F926F927F928F929F92AF92BF92CF9288
:10102000DF92EF92FF920F931F932F933F934F9373
:101030005F936F937F938F939F93AF93BF93CF9360
:10104000DF93EF93FF93A0914201B09143010DB65E
:101050000D920EB60D9280916A01882321F081E0F5
:1010600080936B015FC010926B01A0914201B0911F
:101070004301E0914201F09143012D913C91878918
:10108000908D82179307A8F08091420190914301BF
:101090008091420190914301259A2D9A2FEF87EA82
:1010A00091E6215080409040E1F700C000001D9A79
:1010B000F5CF2091870289E001C02150422F50E0F6
:1010C000849FF001859FF00D1124ED59FD4F908113
:1010D000992399F3A181B28112960D90BC91A02D14
:1010E000B283A183289FC00111248A599D4FA8175C
:1010F000B90729F412968D919C919283818389E09E
:10110000849FF001859FF00D1124ED59FD4F018062
:10111000F281E02D86819781909343018093420173
:1011200020938702A0914201B0914301CD91CDBFA0
:10113000DD91DEBFFF91EF91DF91CF91BF91AF9134
:101140009F918F917F916F915F914F913F912F91DF
:101150001F910F91FF90EF90DF90CF90BF90AF90D5
:101160009F908F907F906F905F904F903F902F90C7
:101170001F900F900FBE0F9008958F929F92BF9275
:10118000CF92DF92EF92FF920F931F93CF93DF9353
:101190000FB6F8940F9280916A01815080936A0192
:1011A00080916A01882379F080E00F900FBEDF9173
:1011B000CF911F910F91FF90EF90DF90CF90BF9054
:1011C0009F908F90089580918A02882369F3E09020
:1011D0004D02F0904E02F0E0E0E039E041E0809115
:1011E000480281115EC0EF2B11F00E947005E09063
:1011F0006801F0906901E114F10409F47DC189E00E
:10120000D82ECC24C3940FEF1FEF80916A01811177
:1012100061C1C0912302D09124024E018FEF881A40
:10122000980A909224028092230281149104B9F4C6
:101230008091340290913502209132023091330234
:10124000309335022093340290933302809332021C
:10125000809167018F5F809367010E947005809184
:10126000250290912602B12C8816990608F026C115
:10127000E0914201F0914301E689DE9EF0011124E4
:10128000ED59FD4F8081823010F0BB24B3948091E2
:101290006B01811103C0BB2009F425C1C0926B0111
:1012A00022C1D7011696ED91FC91A489B589668576
:1012B000778580899189EB019D838C8380899189D1
:1012C000EC017B836A83BF01645F7F4F11960D91B0
:1012D0001C9112970617170721F412969C938E9370
:1012E0001197158A148A8C9181508C93A285B385AD
:1012F0008481958166817781EC017D836C83668131
:101300007781EB019B838A83CF01029611960D9121
:101310001C9112970817190721F412967C936E936B
:101320001197138612862C9121502C93A689209117
:1013300087022A1710F4A09387023A9FD001112444
:10134000AD59BD4F11960D90BC91A02DB583A483CE
:1013500014966D917C9115977783668314966D91A1
:101360007C911597EB019B838A8315969C938E93B2
:1013700014979689939FD0011124AD59BD4FB3871F
:10138000A2878C918F5F8C93A0914201B091430111
:1013900056968C91981708F422CF40936B011FCF7B
:1013A000E0913402F09135020580F681E02D06804F
:1013B000F781E02D828193818816990628F4909315
:1013C00026028093250254CFC285D38584819581DE
:1013D00026813781DC0115963C932E931497268144
:1013E0003781D90113969C938E931297CF01029661
:1013F00049815A814817590711F43A832983138682
:101400001286288121502883A489B5891097F9F084
:101410002685378540895189E9015D834C83408960
:101420005189EA013B832A8311966D917C91129731
:101430009F01245F3F4F6217730721F412965C935C
:101440004E931197158A148A2C9121502C93A689BA
:10145000209187022A1710F4A0938702DA9ED00108
:101460001124AD59BD4F11960D90BC91A02DB5839F
:10147000A48314962D913C91159737832683149657
:101480002D913C911597E9019B838A8315969C9336
:101490008E93149796899D9DD0011124AD59BD4F0F
:1014A000B387A2878C918F5F8C93E0914201F0917A
:1014B00043018689981710F0BB24B394E09134025D
:1014C000F0913502808181116BCF10932602009339
:1014D0002502CECE8091680190916901019690938A
:1014E000690180936801D1E0ED1AF10809F08DCE11
:1014F000109269011092680180916B01882309F4B0
:1015000053CE0E94FF0781E050CECF93DF93EC01D2
:101510000E94F90760E0CE010E9486060E94BD0885
:10152000811102C00E94FF07DF91CF9108950F92B1
:101530000FB6F8940F921F9211242F923F924F9260
:101540005F926F927F928F929F92AF92BF92CF9253
:10155000DF92EF92FF920F931F932F933F934F933E
:101560005F936F937F938F939F93AF93BF93CF932B
:10157000DF93EF93FF93A0914201B09143010DB629
:101580000D920EB60D9213BE80916A018111F9C0C1
:1015900080912302909124020196909324028093DB
:1015A0002302009781F52091340230913502409159
:1015B00032025091330250933502409334023093FB
:1015C000330220933202209167012F5F209367013D
:1015D000E0913402F09135022081211107C02FEFF4
:1015E0003FEF30932602209325020DC0E091340294
:1015F000F09135020580F681E02D20813181309314
:10160000260220932502209125023091260282177E
:10161000930710F420E0A1C020E039E0D32EE09140
:101620003402F09135023081311107C08FEF9FEF06
:10163000909326028093250290C0E0913402F091AD
:1016400035020580F681E02D0680F781E02D42818C
:1016500053818417950728F450932602409325025E
:101660007CC0A285B3854481558166817781EA017A
:101670007D836C8366817781EB015B834A83AF0155
:101680004E5F5F4F11960D911C911297041715072D
:1016900021F412967C936E931197138612863C91D7
:1016A00031503C93A489B5891097F9F06685778508
:1016B00000891189EB011D830C8300891189E801E0
:1016C0007B836A831196ED90FC901297BF01645F53
:1016D0007F4FE616F70621F412961C930E9311978E
:1016E000158A148A3C9131503C93A6893091870227
:1016F0003A1710F4A0938702DA9ED0011124AD5955
:10170000BD4F11960D90BC91A02DB583A483149666
:101710006D917C9115977783668314966D917C917A
:101720001597EB015B834A8315965C934E93149750
:1017300046894D9DD0011124AD59BD4FB387A28775
:101740003C913F5F3C93E0914201F0914301368927
:10175000431708F464CF21E062CFE0914201F09199
:101760004301E689D9E0ED9FF0011124ED59FD4FC9
:101770008081823008F021E080916B0181110EC0E0
:101780000AC0809168019091690101969093690166
:10179000809368016AC0222309F467C080916A01BE
:1017A000882321F081E080936B015FC010926B0170
:1017B000A0914201B0914301E0914201F0914301B7
:1017C0002D913C918789908D82179307A8F0809185
:1017D0004201909143018091420190914301259AE9
:1017E0002D9A2FEF87EA91E6215080409040E1F753
:1017F00000C000001D9AF5CF2091870289E001C04A
:101800002150422F50E0849FF001859FF00D11245C
:10181000ED59FD4F9081992399F3A181B2811296E0
:101820000D90BC91A02DB283A183289FC0011124EB
:101830008A599D4FA817B90729F412968D919C914A
:101840009283818389E0849FF001859FF00D1124AC
:10185000ED59FD4F0180F281E02D868197819093B3
:1018600043018093420120938702A0914201B091ED
:101870004301CD91CDBFDD91DEBFFF91EF91DF91AF
:10188000CF91BF91AF919F918F917F916F915F9118
:101890004F913F912F911F910F91FF90EF90DF900B
:1018A000CF90BF90AF909F908F907F906F905F9000
:1018B0004F903F902F901F900F900FBE0F90089564
:1018C000CF93DF93009751F0EC010E94F907CE010E
:1018D0000E943E11DF91CF910C94BD08DF91CF9112
:1018E000089500E010E08091640181110CC08091A6
:1018F0006302823010F00E94FF070115110599F371
:101900000E947801F0CF0FB6F8940F92E091440254
:10191000F0914502C681D781CE0102960E948805CA
:1019200080918A02815080938A0280916401815063
:10193000809364010F900FBE8F89988D0E94600C78
:10194000CE010E94600CCFCFCF93DF93EC010E94B9
:10195000F907CE010E94A210EC010E94BD08209759
:1019600069F4259A2D9A2FEF80E792E0215080406C
:101970009040E1F700C000001D9AF5CFCE01DF9145
:10198000CF9108957F928F929F92AF92BF92CF9204
:10199000DF92EF92FF920F931F93CF93DF93982ED6
:1019A000A92E762E872E7A01B22ECA010E94A40C8F
:1019B0006C01892B09F4EDC088E290E00E94A40C30
:1019C000EC01892B09F4E2C088E2DE011D928A95C0
:1019D000E9F7D88ECF8AA70165EA70E0C6010E94B8
:1019E0002012B1E0EB1AF108EF89F88DEE0DFF1D22
:1019F000672D782DCE0149969B01285F3F4FDB0173
:101A00004D91BD01DC014D93CD01AB014150510918
:101A1000DA014C91442319F06217730781F718A279
:101A2000BE8AB9A21B861A861D8A1C8AD987C887D6
:101A300084E090E08B1991099D878C87DB8BCA8BA2
:101A40009082DF011197AC9211971C92119780E858
:101A50008C9311971C9257971C9211971C92B397D5
:101A6000F983E8830115110519F0F801D183C083CA
:101A70000FB6F8940F9280918A028F5F80938A024A
:101A80008091420190914301892B09F091C0D0933C
:101A90004301C093420180918A02813081F583E63F
:101AA00092E00E94E2058CE692E00E94E20585E762
:101AB00092E00E94E2058EE792E00E94E2058AE54C
:101AC00092E00E94E20581E592E00E94E20588E44E
:101AD00092E00E94E2058FE392E00E94E20586E335
:101AE00092E00E94E2058AE592E0909335028093AD
:101AF000340281E592E09093330280933202809128
:101B000088028F5F80938802AE89809187028A174E
:101B100010F4A093870229E02A9FD0011124AD5927
:101B2000BD4F11960D90BC91A02DBD83AC83149632
:101B30008D919C9115979F838E831496ED91FC91C6
:101B40001597CE0102969383828315969C938E936C
:101B50001497EE89E29FF0011124ED59FD4FFB87A8
:101B6000EA8780818F5F80830F900FBE809189020A
:101B7000882351F0E0914201F091430196898E89CA
:101B8000981710F40E94FF0781E004C0C6010E946C
:101B9000600C8FEFDF91CF911F910F91FF90EF902D
:101BA000DF90CF90BF90AF909F908F907F900895DF
:101BB000809189028111A3CFE0914201F09143010C
:101BC00096898E89891708F49ACFD0934301C093E0
:101BD000420195CFCF93DF9300D000D01F92CDB7B5
:101BE000DEB7E0910B02F0910C021081F12CE12C98
:101BF000112329F00580F681E02DE080F1800E941C
:101C0000F9070E94EF076C018091650190916601D0
:101C1000C816D90608F085C00E946806D0926601F1
:101C2000C09265010E94BD0800912102109122021C
:101C30000FB6F8940F92D8015A96FC905A97FF204D
:101C400009F430C15C964C915C97442301F150E05B
:101C500016968D919C911797840F951F17969C93BC
:101C60008E93169714962D913C9115978217930792
:101C700038F08D919C91119717969C938E9316979F
:101C8000F80166817781CE0101960E941712FA94BD
:101C9000D8015A96FC925A9718968C91882339F05D
:101CA000C80108960E94080781110E94FF070F9043
:101CB0000FBED980D7FCB8CF0C811D81D8011A96F0
:101CC0008D919C91892B21F0C80102960E94880574
:101CD0000E94EF077C018091650190916601E816F2
:101CE000F90610F40E946806F0926601E092650120
:101CF000EFEFED0DE93008F097CF0E2E000CFF0B43
:101D0000E857F14FD80152968C9152970C94FD11DF
:101D10000B0F0B0F4E0F360F480F0B0F0B0F4E0F05
:101D2000360FD0926601C0926501112351F0CE1496
:101D3000DF0470F00E94BD08B601C7010E943E0694
:101D400073CFE0910902F0910A02808161E0811174
:101D500060E000912102109122020FB6F8940F92D8
:101D6000D8015D968C915D978F3F11F45D961C9222
:101D7000F801868D8F3F09F4168E0F900FBED801A3
:101D80005A968C915A9781113CC05296ED91FC91D4
:101D9000A0914201B09143011F96FC93EE931E97D0
:101DA000A0914201B09143018481958151969C9309
:101DB0008E9350978091420190914301A481B58107
:101DC0000C9613969C938E9312978091420190915A
:101DD00043010C9695838483E0914201F091430185
:101DE000C8014196958B848BF80181898F5F818B27
:101DF000C7018C199D09662311F08FEF9FEF0E9498
:101E00008606C8010E94AD070E94BD0881110CCF53
:101E10000E94FF0709CF8160F801828BCA80DB80B6
:101E2000648575856C0D7D1D9601A701C8010E9412
:101E3000F005882309F4F8CED80152968C91529778
:101E400082FF10C01C966D917C916C0D7D1DA701C9
:101E5000C8010E941A06D8015096ED91FC91C80164
:101E60000995E2CE8E7FF801828BF5CF8160529684
:101E70008C9352976A817B811D967C936E931C97FD
:101E80006E0D7F1D9701A701C8010E94F005CCCE01
:101E900081FD04C0C8010E94600CC6CE8E7FF8018F
:101EA000828BC2CE0F900FBE9CCE0E94970A1895CF
:101EB000789484B5826084BD84B5816084BD85B525
:101EC000826085BD85B5816085BD80916E00816031
:101ED00080936E00109281008091810082608093D7
:101EE00081008091810081608093810080918000D9
:101EF0008160809380008091B10084608093B10004
:101F00008091B00081608093B00080917A008460FD
:101F100080937A0080917A00826080937A00809129
:101F20007A00816080937A0080917A008068809343
:101F30007A001092C10020910501309106018FEFC7
:101F400098E0821B930B90930201809301010E9401
:101F50004C0407E212E020E040EC50E065E371E061
:101F600081E79CE00E94C20C813009F0B3C00FB63B
:101F7000F8940F928091210290912202892B09F00E
:101F80004FC086E192E00E94E2058DE092E00E945F
:101F9000E20586E192E090930C0280930B028DE0C3
:101FA00092E090930A028093090281E590E00E94FA
:101FB000A40CEC01009781F14F96998388838AE005
:101FC0008B8F85E08C8F0FB6F8940F928881998162
:101FD0002B8D4C8DBC01249F600D711D11247D83C0
:101FE0006C831A8E9B838A832150330B429FB001EE
:101FF000439F700D1124860F971F9F838E838FEF51
:102000008D8F8E8FCE0108960E94E205CE014196FB
:102010000E94E2050F900FBED0932202C0932102CE
:102020000F900FBE8091210290912202892B09F41A
:1020300051C00FE112E023E045E550E06AE371E0B2
:102040008AEE9DE00E94C20C813009F043C0F894F2
:102050002FEF3FEF309326022093250280938902D1
:102060001092240210922302A89588E190EC0FB6FA
:10207000F894A895809360000FBE90936000A091A3
:102080004201B0914301CD91CDBFDD91DEBFFF9103
:10209000EF91DF91CF91BF91AF919F918F917F9100
:1020A0006F915F914F913F912F911F910F91FF90F1
:1020B000EF90DF90CF90BF90AF909F908F907F90E8
:1020C0006F905F904F903F902F901F900F900FBE9A
:1020D0000F900895809100010E944C04C0E0D0E070
:1020E0002097F1F30E947801FBCFECE6F1E0138238
:1020F000128288EE93E0A0E0B0E084839583A6830B
:10210000B7838BE091E09183808385EC90E09587A5
:10211000848784EC90E09787868780EC90E0918BB1
:10212000808B81EC90E0938B828B82EC90E0958B9E
:10213000848B86EC90E0978B868B118E128E138E9B
:10214000148E08950F931F93CF93DF9382309105E0
:1021500010F482E090E0E0918D02F0918E0230E088
:1021600020E0B0E0A0E0309799F42115310509F4A2
:102170004AC0281B390B24303105D8F58A819B8150
:102180006115710589F1FB0193838283FE0111C002
:10219000408151810281138148175907E0F04817A7
:1021A000590799F4109761F012960C9312971396B1
:1021B0001C933296CF01DF91CF911F910F9108951B
:1021C00000938D0210938E02F4CF2115310551F04A
:1021D0004217530738F0A901DB019A01BD01DF0165
:1021E000F801C1CFEF01F9CF90938E0280938D0259
:1021F000CDCFFE01E20FF31F81939193225031095D
:1022000039832883D7CF20918B0230918C02232BE6
:1022100041F4209103013091040130938C0220930A
:102220008B0220910101309102012115310541F409
:102230002DB73EB74091050150910601241B350B87
:10224000E0918B02F0918C02E217F307A0F42E1BB1
:102250003F0B2817390778F0AC014E5F5F4F24170A
:10226000350748F04E0F5F1F50938C0240938B024E
:10227000819391939FCFF0E0E0E09CCFCF93DF93E9
:102280000097E9F0FC01329713821282A0918D022F
:10229000B0918E02ED0130E020E01097A1F4208192
:1022A0003181820F931F20918B0230918C0228176D
:1022B000390709F061C0F0938C02E0938B02DF9143
:1022C000CF910895EA01CE17DF07E8F54A815B81D7
:1022D0009E0141155105B1F7E901FB83EA8349915C
:1022E0005991C40FD51FEC17FD0761F480819181CE
:1022F0000296840F951FE9019983888382819381D7
:102300009B838A83F0E0E0E012968D919C91139775
:102310000097B9F52D913C911197CD010296820F4E
:10232000931F20918B0230918C022817390739F6C0
:10233000309751F510928E0210928D02B0938C025C
:10234000A0938B02BCCFD383C28340815181840F81
:10235000951FC817D90761F44E5F5F4F8881998137
:10236000480F591F518340838A819B8193838283C5
:102370002115310509F0B0CFF0938E02E0938D0264
:102380009ECFFD01DC01C0CF13821282D7CF97FB15
:10239000072E16F4009407D077FD09D00E9403128F
:1023A00007FC05D03EF4909581959F4F0895709558
:1023B00061957F4F0895A1E21A2EAA1BBB1BFD0158
:1023C0000DC0AA1FBB1FEE1FFF1FA217B307E40714
:1023D000F50720F0A21BB30BE40BF50B661F771F6C
:1023E000881F991F1A9469F760957095809590954C
:1023F0009B01AC01BD01CF010895EE0FFF1F0590B9
:10240000F491E02D0994AA1BBB1B51E107C0AA1F40
:10241000BB1FA617B70710F0A61BB70B881F991F85
:102420005A95A9F780959095BC01CD010895FB01BF
:10243000DC0102C001900D9241505040D8F7089540
:10244000DC0101C06D9341505040E0F70895F894CD
:02245000FFCFBC
:102452000300008F02800000000000A70104013188
:1024620001F4016201400154017461736B31386DF2
:1024720073007461736B3235306D73007461736B0A
:1024820035306D730049444C4500546D72205376CB
:022492006300E5
:00000001FF
