:100000000C945D000C9485000C9485000C94850084
:100010000C9485000C9485000C9485000C94CF04FE
:100020000C9485000C9485000C9485000C9485003C
:100030000C9485000C9485000C9485000C9485002C
:100040000C942D040C9485000C949D040C9477045E
:100050000C9485000C9485000C9485000C9485000C
:100060000C9485000C9485000000000024002700FB
:100070002A0000000000250028002B0004040404CE
:100080000404040402020202020203030303030342
:10009000010204081020408001020408102001021F
:1000A00004081020000000080002010000030407FB
:1000B0000000000000000000CE0811241FBECFEF9A
:1000C000D8E0DEBFCDBF22E0ACE8B1E001C01D92B8
:1000D000A537B207E1F711E0A0E0B1E0ECEEF6E100
:1000E00002C005900D92AC38B107D9F710E0CDE50C
:1000F000D0E004C02197FE010E947C09CC35D107D5
:10010000C9F70E9422050C94740B0C94000090E037
:10011000FC01EC55FF4F2491FC01E057FF4F349157
:10012000FC01E458FF4FE491EE23C9F0222339F09B
:10013000233001F1A8F4213019F1223029F1F0E047
:10014000EE0FFF1FEE58FF4FA591B4918FB7F894B3
:10015000EC91611126C030953E233C938FBF0895EA
:100160002730A9F02830C9F0243049F78091800069
:100170008F7D03C0809180008F7780938000DFCFD8
:1001800084B58F7784BDDBCF84B58F7DFBCF809125
:10019000B0008F778093B000D2CF8091B0008F7D78
:1001A000F9CF3E2BDACFCF93DF9390E0FC01E057FD
:1001B000FF4F249184589F4FFC0184918823D1F0F4
:1001C00090E0880F991FFC01E859FF4FA591B49169
:1001D000FC01EE58FF4FC591D49161110EC09FB73D
:1001E000F8948C91E22FE0958E238C932881E22362
:1001F000E8839FBFDF91CF9108958FB7F894EC917A
:10020000E22BEC938FBFF6CFAF92BF92CF92DF92EB
:10021000EF92FF920F931F93CF93DF936C017B01BB
:100220008B01040F151FEB015E01AE18BF08C0174C
:10023000D10759F06991D601ED91FC910190F081BF
:10024000E02DC6010995892B79F7C501DF91CF9182
:100250001F910F91FF90EF90DF90CF90BF90AF90E4
:100260000895FC01538D448D252F30E0842F90E0BC
:10027000821B930B541710F0CF96089501970895A1
:10028000FC01918D828D981761F0A28DAE0FBF2F6A
:10029000B11D5D968C91928D9F5F9F73928F90E0C0
:1002A00008958FEF9FEF0895FC01918D828D98172F
:1002B00031F0828DE80FF11D858D90E008958FEF6C
:1002C0009FEF0895FC01918D228D892F90E0805C35
:1002D0009F4F821B91098F739927089584ED91E0B8
:1002E0000E94620121E0892B09F420E0822F089509
:1002F00080E090E0892B29F00E946E0181110C941E
:1003000000000895FC01A48DA80FB92FB11DA35AB8
:10031000BF4F2C91848D90E001968F739927848F25
:10032000A689B7892C93A089B1898C918370806448
:100330008C93938D848D981306C00288F389E02DE9
:1003400080818F7D80830895EF92FF920F931F939A
:10035000CF93DF93EC0181E0888F9B8D8C8D981378
:100360001AC0E889F989808185FF15C09FB7F89484
:10037000EE89FF896083E889F989808183708064D0
:1003800080839FBF81E090E0DF91CF911F910F911B
:10039000FF90EF900895F62E0B8D10E00F5F1F4F2A
:1003A0000F731127E02E8C8D8E110CC00FB607FC39
:1003B000FACFE889F989808185FFF5CFCE010E94C7
:1003C0008201F1CFEB8DEC0FFD2FF11DE35AFF4FB2
:1003D000F0829FB7F8940B8FEA89FB898081806255
:1003E000CFCFCF93DF93EC01888D8823B9F0AA8912
:1003F000BB89E889F9898C9185FD03C0808186FDE0
:100400000DC00FB607FCF7CF8C9185FFF2CF80812E
:1004100085FFEDCFCE010E948201E9CFDF91CF9120
:1004200008959091AE019695969596959370923019
:1004300021F48FEF8093A90108959091AE019695D4
:1004400096959695937081F4282F30E041E0429F75
:10045000C001439F900D921B112464E670E00E943E
:1004600046096F5F6093A90108954F925F926F9262
:100470007F928F929F92AF92BF92CF92DF92EF9234
:10048000FF92CF93DF93CDB7DEB728970FB6F894DE
:10049000DEBF0FBECDBF6B017C018091AE018770C6
:1004A0008130C9F018F0853008F46BC028960FB67B
:1004B000F894DEBF0FBECDBFDF91CF91FF90EF90DC
:1004C000DF90CF90BF90AF909F908F907F906F9074
:1004D0005F904F900895C70120EA36E841E050E070
:1004E0000E945A096AE0862E912CA12CB12CCA01D7
:1004F000B901A50194010E945A096093A301C701A3
:10050000B60120E137E240E050E00E945A09CA01FA
:10051000B901A50194010E945A096093A401C70181
:10052000B60128EE33E040E050E00E945A09CA01CB
:10053000B901A50194010E945A096093A501C70160
:10054000B60124E630E040E050E00E945A09CA01BA
:10055000B901A50194010E945A096093A601C7013F
:10056000B601A50194010E945A09F62ECA01B901EB
:10057000A50194010E945A096093A701F092A80175
:1005800095CFC70120E13EE040E050E00E945A09CB
:10059000CA01B90128E130E040E050E00E945A0968
:1005A00069837A838B839C838CE3882E912CA12C86
:1005B000B12CC701B601A50194010E945A096D83AF
:1005C0007E838F839887CA01B901A50194010E9497
:1005D0005A092B013C019AE0892E912CA12CB12CB7
:1005E00069817A818B819C81A50194010E945A09BD
:1005F0002093A3016093A401C301B201A50194015A
:100600000E945A092093A5016093A6016D817E8105
:100610008F819885A50194010E945A092093A70112
:100620006093A8018091AA019091AB01A091AC01C7
:10063000B091AD01C816D906EA06FB06D1F080914B
:10064000AA019091AB01A091AC01B091AD018C19C0
:100650009D09AE09BF090B97A105B10508F426CF86
:10066000C092AA01D092AB01E092AC01F092AD0130
:100670001DCF8091AA019091AB01A091AC01B091E6
:10068000AD01A7019601281B390B4A0B5B0BDA0160
:10069000C901E1CFE3EAF1E021818081A0EBB1E083
:1006A00090E1299F900111248F70822B8C932381DC
:1006B000828190E1299F900111248F70822B1196E5
:1006C0008C9311972581848190E1299F90011124B9
:1006D0008F70822B12968C930895E0EBF1E08FEFF0
:1006E00080838183828308950F931F93CF93DF9339
:1006F000082F162FD42FC8E06D2F661F6627661FA0
:10070000802F0E948700DD0F61E0812F0E9487000B
:1007100060E0812F0E948700C15071F7DF91CF9177
:100720001F910F910895FC0101900020E9F7319786
:10073000AF01481B590BBC0184ED91E00C940401FE
:100740008F929F92AF92BF920F931F93CF93DF939D
:10075000CDB7DEB7A1970FB6F894DEBF0FBECDBF01
:1007600019A2423008F44AE08E010F5D1F4F842E1B
:10077000912CB12CA12CA50194010E945A09E62FBD
:10078000B901CA01EA30F4F4E05DD801EE938D01BD
:10079000232B242B252B79F790E080E0109719F07C
:1007A000CD010E949303A1960FB6F894DEBF0FBE51
:1007B000CDBFDF91CF911F910F91BF90AF909F90D0
:1007C0008F900895E95CE1CFEF92FF920F931F9312
:1007D000CF93DF93EC017B01198218821B821A826E
:1007E0001D821C82FB0101900020E9F731978F01E7
:1007F000061B170BB8016F5F7F4F90E080E00E94EF
:10080000A70A0097B9F0998388831B830A832C81F8
:100810003D81232B11F4FC0110821D830C83B70151
:1008200088819981DF91CF911F910F91FF90EF9077
:100830000C946D0B88819981009711F00E941E0A1B
:10084000198218821D821C821B821A82DF91CF912D
:100850001F910F91FF90EF9008951F920F920FB686
:100860000F9211242F933F938F939F93AF93BF9336
:100870008091D0019091D101A091D201B091D3018A
:100880003091CF0123E0230F2D3758F50196A11D9C
:10089000B11D2093CF018093D0019093D101A093FB
:1008A000D201B093D3018091CB019091CC01A09162
:1008B000CD01B091CE010196A11DB11D8093CB0158
:1008C0009093CC01A093CD01B093CE01BF91AF9195
:1008D0009F918F913F912F910F900FBE0F901F907E
:1008E000189526E8230F0296A11DB11DD2CF1F92A5
:1008F0000F920FB60F9211242F933F934F935F9354
:100900006F937F938F939F93AF93BF93EF93FF93D7
:1009100084ED91E00E948201FF91EF91BF91AF9130
:100920009F918F917F916F915F914F913F912F9107
:100930000F900FBE0F901F9018951F920F920FB639
:100940000F9211242F938F939F93EF93FF93E09136
:10095000E401F091E5018081E091EA01F091EB0181
:1009600082FD1BC090818091ED018F5F8F7320917C
:10097000EE01821741F0E091ED01F0E0EC52FE4F04
:10098000958F8093ED01FF91EF919F918F912F9122
:100990000F900FBE0F901F9018958081F4CF1F927B
:1009A0000F920FB60F9211242F933F934F935F93A3
:1009B0006F937F938F939F93AF93BF93EF93FF9327
:1009C00080918D0190918E019C012F5F3F4F30935C
:1009D0008E0120938D01883E934018F110928E0174
:1009E00010928D0190918C0181E0911180E08093B3
:1009F0008C0160918C018DE00E9487008091AE0196
:100A00008770823070F06091AA017091AB01809183
:100A1000AC019091AD016F5F7F4F8F4F9F4F0E9450
:100A20003502FF91EF91BF91AF919F918F917F918F
:100A30006F915F914F913F912F910F900FBE0F904B
:100A40001F901895CF93DF9300D000D000D0CDB782
:100A5000DEB7789484B5826084BD84B5816084BD3E
:100A600085B5826085BD85B5816085BD80916E004C
:100A7000816080936E00109281008091810082607D
:100A800080938100809181008160809381008091BA
:100A900080008160809380008091B10084608093A9
:100AA000B1008091B00081608093B00080917A00A5
:100AB000846080937A0080917A00826080937A00CB
:100AC00080917A00816080937A0080917A008068BA
:100AD00080937A001092C100E091E401F091E50169
:100AE00082E08083E091E001F091E1011082E091E9
:100AF000E201F091E3018FEC80831092EC01E09130
:100B0000E801F091E90186E08083E091E601F0914F
:100B1000E701808180618083E091E601F091E70147
:100B2000808188608083E091E601F091E701808117
:100B300080688083E091E601F091E70180818F7DFC
:100B4000808360E08EE00E94D30061E086E00E9436
:100B5000D30061E084E00E94D30061E088E00E945D
:100B6000D30061E089E00E94D30061E08AE00E9446
:100B7000D30061E08BE00E94D30061E08CE00E9432
:100B8000D30061E08DE00E94D3000E946D03F894D1
:100B90001092B0001092B1001092B20089EF8093D1
:100BA000B3008091B00082608093B0008091B1006A
:100BB00084608093B10080917000826080937000A7
:100BC000789488E2C82ED12C9AEA692E90E0792E8A
:100BD00023E7A22EB12C30E0E32E30E0F32E44E1E7
:100BE000842E912C2FB7F8948091D0019091D1014F
:100BF000A091D201B091D3012FBF8093C7019093F0
:100C0000C801A093C901B093CA014091C30150919A
:100C1000C4016091C5017091C601841B950BA60BA0
:100C2000B70B4497A105B10508F414C184ED91E018
:100C30000E946201892B09F4F2C084ED91E00E94C8
:100C4000400190919B01983088F4E92FF0E0E55D38
:100C5000F94F0C947C093306B806BB06C306C606DA
:100C6000C906CC06CF06853509F0E4C09F5F909396
:100C70009B01983008F4D3C090919A01809197011C
:100C80009813C5C0809198018093AE01809199011D
:100C90000E941102209093013090940140909501A0
:100CA0005090960180918F0190919001A0919101B7
:100CB000B0919201281639064A065B0621F0C2015E
:100CC000B1010E94350220928F0130929001409232
:100CD00091015092920188E191E00E9493038091EA
:100CE000AE01869586958695837069E271E08130C4
:100CF00051F062E271E0813030F063E371E0823004
:100D000011F06AE871E0CE0101960E94E4034D8182
:100D10005E8169817A8184ED91E00E94040189817C
:100D20009A81009711F00E941E0A87E391E00E94C9
:100D300093036091AF0170E090E080E04AE00E9490
:100D4000A00385E491E00E9493038091AE01877037
:100D50006DE671E0823091F128F565E571E0882358
:100D600069F16BE571E0813049F16AE871E026C014
:100D700080939A017BCF8093990120919701820FF4
:100D80008093970173CF80939801F7CF809396015A
:100D9000F4CF80939501F1CF80939401EECF8093AF
:100DA0009301EBCF6EE571E0843041F061E671E0D4
:100DB000843020F063E771E08530B9F6CE0101960A
:100DC0000E94E4034D815E8169817A8184ED91E026
:100DD0000E94040189819A81009711F00E941E0AE5
:100DE00087E791E00E9493036091930170919401D1
:100DF00080919501909196014AE00E94A00385E8B8
:100E000091E00E94930388E891E00E94930310927E
:100E10009B011092970184ED91E00E94F101809175
:100E2000AE018695869586958370813019F48FEF93
:100E30000E9411028091C7019091C801A091C9013F
:100E4000B091CA018093C3019093C401A093C501DE
:100E5000B093C6012FB7F8948091D0019091D10141
:100E6000A091D201B091D3012FBF8093BF01909385
:100E7000C001A093C101B093C2014091BB01509148
:100E8000BC016091BD017091BE01841B950BA60B46
:100E9000B70BC297A105B105B8F08091A9018F3FAA
:100EA00009F078C00E946D038091BF019091C0014C
:100EB000A091C101B091C2018093BB019093BC018C
:100EC000A093BD01B093BE018FB7F8942090D001DC
:100ED0003090D1014090D2015090D3018FBF209229
:100EE000B7013092B8014092B9015092BA01809195
:100EF000B3019091B401A091B501B091B601A201E6
:100F00009101281B390B4A0B5B0BDA01C9018A3F9F
:100F10009105A105B10590F10091B00160E08DE06F
:100F20000E948700402F6CE08BE00E94740361E018
:100F30008DE00E9487001091B10160E08AE00E947C
:100F40008700412F69E088E00E94740361E08AE035
:100F50000E94870060E00F3F31F41F3F21F486E0DC
:100F60000E94870061E084E00E9487002092B30124
:100F70003092B4014092B5015092B601E114F104EF
:100F800009F430CE0E946E01882309F42BCE0E9412
:100F9000000028CE8091AE018770823009F49AC09B
:100FA00080F58823F1F1813009F07ECF20919C01FA
:100FB00030919D012C33310508F07DC04091A40192
:100FC0009091A30180E1489FA00111249F70942B70
:100FD0009093B0018091A501806F8093B101C90108
:100FE0000196B5010E94320990939D0180939C0166
:100FF0009092A1018092A00110929F0110929E01F7
:1010000053CF8430B9F050F1853009F04DCFFFE473
:10101000F093B00124E52093B10131E43093B201A3
:1010200043CF1092A2011092B0011092B101109220
:10103000B2013ACF8091A0019091A10101969093C5
:10104000A1018093A0018A30910508F42BCF449729
:1010500050F31092A1011092A00126CF80919E0121
:1010600090919F0101968C3221E09207C0F49093F9
:101070009F0180939E010091A0011091A101043174
:10108000110520F08091A201811112C00E946D0310
:101090000F5F1F4F1093A1010093A00105CF109285
:1010A0009F0110929E011092A1011092A001E3CF26
:1010B0000E944A03F9CE4091A7019091A601E0E178
:1010C0004E9FA00111249F70942B9093B0018091AA
:1010D000A80182CFF1E0F093A2018091A00190914C
:1010E000A10100E110E0449710F010E000E061E0A1
:1010F00086E00E94D3000115110529F460E086E026
:101100000E94870022C0F3018491833069F148F482
:101110008130B9F0823091F784B5806284BD08BD1A
:1011200014C0873059F1883089F1843039F78091C3
:10113000800080628093800010938B0000938A006F
:1011400004C084B5806884BD07BD8091A0019091E2
:10115000A1010196B6010E9432099093A1018093EA
:10116000A0010E944A0348CF80918000806880934C
:1011700080001093890000938800E7CF8091B00031
:1011800080688093B0000093B300DFCF8091B000FF
:1011900080628093B0000093B400D7CFE4EDF1E01B
:1011A0001382128288EE93E0A0E0B0E084839583FE
:1011B000A683B7838AE091E09183808385EC90E0F9
:1011C0009587848784EC90E09787868780EC90E011
:1011D000918B808B81EC90E0938B828B82EC90E002
:1011E000958B848B86EC90E0978B868B118E128E7C
:1011F000138E148E08952F923F924F925F926F92AA
:101200007F928F929F92AF92BF92CF92DF92EF9296
:10121000FF920F931F93CF93DF93CDB7DEB7CA1B17
:10122000DB0B0FB6F894DEBF0FBECDBF09942A8842
:10123000398848885F846E847D848C849B84AA84EA
:10124000B984C884DF80EE80FD800C811B81AA8177
:10125000B981CE0FD11D0FB6F894DEBF0FBECDBF42
:10126000ED010895AA1BBB1B51E107C0AA1FBB1FBC
:10127000A617B70710F0A61BB70B881F991F5A9522
:10128000A9F780959095BC01CD01089597FB072E95
:1012900016F4009407D077FD09D00E94320907FCAC
:1012A00005D03EF4909581959F4F08957095619576
:1012B0007F4F0895A1E21A2EAA1BBB1BFD010DC092
:1012C000AA1FBB1FEE1FFF1FA217B307E407F507F6
:1012D00020F0A21BB30BE40BF50B661F771F881FD2
:1012E000991F1A9469F760957095809590959B0168
:1012F000AC01BD01CF010895EE0FFF1F0590F491E1
:10130000E02D09940F931F93CF93DF9382309105C3
:1013100010F482E090E0E0917302F091740230E00A
:1013200020E0B0E0A0E0309799F42115310509F4F0
:101330004AC0281B390B24303105D8F58A819B819E
:101340006115710589F1FB0193838283FE0111C050
:10135000408151810281138148175907E0F04817F5
:10136000590799F4109761F012960C9312971396FF
:101370001C933296CF01DF91CF911F910F91089569
:101380000093730210937402F4CF2115310551F0CC
:101390004217530738F0A901DB019A01BD01DF01B3
:1013A000F801C1CFEF01F9CF9093740280937302DB
:1013B000CDCFFE01E20FF31F8193919322503109AB
:1013C00039832883D7CF2091710230917202232B69
:1013D00041F4209102013091030130937202209375
:1013E000710220910001309101012115310541F474
:1013F0002DB73EB74091040150910501241B350BD8
:10140000E0917102F0917202E217F307A0F42E1B33
:101410003F0B2817390778F0AC014E5F5F4F241758
:10142000350748F04E0F5F1F5093720240937102D0
:10143000819391939FCFF0E0E0E09CCFCF93DF9337
:101440000097E9F0FC01329713821282A091730297
:10145000B0917402ED0130E020E01097A1F42081FA
:101460003181820F931F20917102309172022817EF
:10147000390709F061C0F0937202E0937102DF91C5
:10148000CF910895EA01CE17DF07E8F54A815B8125
:101490009E0141155105B1F7E901FB83EA834991AA
:1014A0005991C40FD51FEC17FD0761F4808191811C
:1014B0000296840F951FE901998388838281938125
:1014C0009B838A83F0E0E0E012968D919C911397C4
:1014D0000097B9F52D913C911197CD010296820F9D
:1014E000931F20917102309172022817390739F643
:1014F000309751F51092740210927302B0937202F9
:10150000A0937102BCCFD383C28340815181840FE9
:10151000951FC817D90761F44E5F5F4F8881998185
:10152000480F591F518340838A819B819383828313
:101530002115310509F0B0CFF0937402E0937302E6
:101540009ECFFD01DC01C0CF13821282D7CFB0E065
:10155000A0E0EDEAFAE00C94FD088C01009751F44C
:10156000CB010E9482098C01C801CDB7DEB7E0E152
:101570000C941909FC01E60FF71F9C012250310958
:10158000E217F30708F49DC0D901CD91DC911197C2
:10159000C617D70798F0C530D10530F3CE010497B0
:1015A0008617970708F3C61BD70B2297C193D193D1
:1015B0006D937C93CF010E941E0AD6CF5B01AC1ABB
:1015C000BD0A4C018C0E9D1EA0917302B091740255
:1015D000512C412CF12CE12C109731F580917102A6
:1015E000909172028815990509F05CC0461657065D
:1015F00008F058C08091000190910101009741F4DA
:101600008DB79EB74091040150910501841B950B45
:10161000E817F90708F055C0F0937202E0937102E1
:10162000F90171836083A0CF8D919C9111971296DF
:101630006C90129713967C901397A815B90559F5DD
:101640006C0142E0C40ED11CCA14DB0420F1AC01D1
:101650004A195B09DA011296159780F0628273824B
:1016600051834083D9016D937C93E114F10471F0AF
:10167000D7011396FC93EE93129776CF22968C0F98
:101680009D1FF90191838083F301EFCFF0937402E2
:10169000E093730269CF4816590608F42C017D01C6
:1016A000D3019ACFCB010E9482097C01009749F0B7
:1016B000AE01B8010E94640BC8010E941E0A870196
:1016C00053CF10E000E050CFFB01DC0102C00190DD
:1016D0000D9241505040D8F70895FB01DC01019074
:0C16E0000D920020E1F70895F894FFCF70
:1016EC0000007502800000000000A401040131011B
:1016FC00F1016201400154010A7C204D6F64653A8E
:10170C0020004D616E75616C004175746F6D617474
:10171C006963004F6666007C20496E74656E736960
:10172C0074793A20007C20436C6F636B2053746196
:10173C0074653A2000537461727400495000415032
:10174C000053657276657220446F776E0056616C3B
:10175C006964004F5441007C2054696D6573746159
:0C176C006D703A2000207C000D0A000087
:00000001FF
