:100000000C945D000C9485000C9485000C94850084
:100010000C9485000C9485000C9485000C94D804F5
:100020000C9485000C9485000C9485000C9485003C
:100030000C9485000C9485000C9485000C9485002C
:100040000C9436040C9485000C94A6040C94800443
:100050000C9485000C9485000C9485000C9485000C
:100060000C9485000C9485000000000024002700FB
:100070002A0000000000250028002B0004040404CE
:100080000404040402020202020203030303030342
:10009000010204081020408001020408102001021F
:1000A00004081020000000080002010000030407FB
:1000B0000000000000000000200811241FBECFEF48
:1000C000D8E0DEBFCDBF22E0ACE8B1E001C01D92B8
:1000D000A337B207E1F711E0A0E0B1E0E0E9F5E114
:1000E00002C005900D92AC38B107D9F710E0CDE50C
:1000F000D0E004C02197FE010E94BA08CC35D10798
:10010000C9F70E942B050C94C60A0C94000090E0DD
:10011000FC01EC55FF4F2491FC01E057FF4F349157
:10012000FC01E458FF4FE491EE23C9F0222339F09B
:10013000233001F1A8F4213019F1223029F1F0E047
:10014000EE0FFF1FEE58FF4FA591B4918FB7F894B3
:10015000EC91611126C030953E233C938FBF0895EA
:100160002730A9F02830C9F0243049F78091800069
:100170008F7D03C0809180008F7780938000DFCFD8
:1001800084B58F7784BDDBCF84B58F7DFBCF809125
:10019000B0008F778093B000D2CF8091B0008F7D78
:1001A000F9CF3E2BDACFCF93DF9390E0FC01E057FD
:1001B000FF4F249184589F4FFC0184918823D1F0F4
:1001C00090E0880F991FFC01E859FF4FA591B49169
:1001D000FC01EE58FF4FC591D49161110EC09FB73D
:1001E000F8948C91E22FE0958E238C932881E22362
:1001F000E8839FBFDF91CF9108958FB7F894EC917A
:10020000E22BEC938FBFF6CFAF92BF92CF92DF92EB
:10021000EF92FF920F931F93CF93DF936C017B01BB
:100220008B01040F151FEB015E01AE18BF08C0174C
:10023000D10759F06991D601ED91FC910190F081BF
:10024000E02DC6010995892B79F7C501DF91CF9182
:100250001F910F91FF90EF90DF90CF90BF90AF90E4
:100260000895FC01538D448D252F30E0842F90E0BC
:10027000821B930B541710F0CF96089501970895A1
:10028000FC01918D828D981761F0A28DAE0FBF2F6A
:10029000B11D5D968C91928D9F5F9F73928F90E0C0
:1002A00008958FEF9FEF0895FC01918D828D98172F
:1002B00031F0828DE80FF11D858D90E008958FEF6C
:1002C0009FEF0895FC01918D228D892F90E0805C35
:1002D0009F4F821B91098F739927089582ED91E0BA
:1002E0000E94620121E0892B09F420E0822F089509
:1002F00080E090E0892B29F00E946E0181110C941E
:1003000000000895FC01A48DA80FB92FB11DA35AB8
:10031000BF4F2C91848D90E001968F739927848F25
:10032000A689B7892C93A089B1898C918370806448
:100330008C93938D848D981306C00288F389E02DE9
:1003400080818F7D80830895EF92FF920F931F939A
:10035000CF93DF93EC0181E0888F9B8D8C8D981378
:100360001AC0E889F989808185FF15C09FB7F89484
:10037000EE89FF896083E889F989808183708064D0
:1003800080839FBF81E090E0DF91CF911F910F911B
:10039000FF90EF900895F62E0B8D10E00F5F1F4F2A
:1003A0000F731127E02E8C8D8E110CC00FB607FC39
:1003B000FACFE889F989808185FFF5CFCE010E94C7
:1003C0008201F1CFEB8DEC0FFD2FF11DE35AFF4FB2
:1003D000F0829FB7F8940B8FEA89FB898081806255
:1003E000CFCFCF93DF93EC01888D8823B9F0AA8912
:1003F000BB89E889F9898C9185FD03C0808186FDE0
:100400000DC00FB607FCF7CF8C9185FFF2CF80812E
:1004100085FFEDCFCE010E948201E9CFDF91CF9120
:1004200008959091AC01969596959695937092301B
:1004300021F48FEF8093A70108959091AC019695D8
:1004400096959695937081F4282F30E041E0429F75
:10045000C001439F900D921B112464E670E00E943E
:1004600084086F5F6093A70108954F925F926F9227
:100470007F928F929F92AF92BF92CF92DF92EF9234
:10048000FF92CF93DF93CDB7DEB728970FB6F894DE
:10049000DEBF0FBECDBF6B017C018091AC018770C8
:1004A0008130C9F018F0853008F46BC028960FB67B
:1004B000F894DEBF0FBECDBFDF91CF91FF90EF90DC
:1004C000DF90CF90BF90AF909F908F907F906F9074
:1004D0005F904F900895C70120EA36E841E050E070
:1004E0000E9498086AE0862E912CA12CB12CCA019A
:1004F000B901A50194010E9498086093A101C70168
:10050000B60120E137E240E050E00E949808CA01BD
:10051000B901A50194010E9498086093A201C70146
:10052000B60128EE33E040E050E00E949808CA018E
:10053000B901A50194010E9498086093A301C70125
:10054000B60124E630E040E050E00E949808CA017D
:10055000B901A50194010E9498086093A401C70104
:10056000B601A50194010E949808F62ECA01B901AE
:10057000A50194010E9498086093A501F092A6013C
:1005800095CFC70120E13EE040E050E00E9498088E
:10059000CA01B90128E130E040E050E00E9498082B
:1005A00069837A838B839C838CE3882E912CA12C86
:1005B000B12CC701B601A50194010E9498086D8372
:1005C0007E838F839887CA01B901A50194010E9497
:1005D00098082B013C019AE0892E912CA12CB12C7A
:1005E00069817A818B819C81A50194010E94980880
:1005F0002093A1016093A201C301B201A50194015E
:100600000E9498082093A3016093A4016D817E81CC
:100610008F819885A50194010E9498082093A501D7
:100620006093A6018091A8019091A901A091AA01CF
:10063000B091AB01C816D906EA06FB06D1F080914D
:10064000A8019091A901A091AA01B091AB018C19C8
:100650009D09AE09BF090B97A105B10508F426CF86
:10066000C092A801D092A901E092AA01F092AB0138
:100670001DCF8091A8019091A901A091AA01B091EC
:10068000AB01A7019601281B390B4A0B5B0BDA0162
:10069000C901E1CFE1EAF1E021818081AEEAB1E078
:1006A00090E1299F900111248F70822B8C932381DC
:1006B000828190E1299F900111248F70822B1196E5
:1006C0008C9311972581848190E1299F90011124B9
:1006D0008F70822B12968C930895EEEAF1E08FEFE3
:1006E0008083818382830895FC0101900020E9F7D3
:1006F0003197AF01481B590BBC0182ED91E00C947E
:1007000004018F929F92AF92BF920F931F93CF934A
:10071000DF93CDB7DEB7A1970FB6F894DEBF0FBE5B
:10072000CDBF19A2423008F44AE08E010F5D1F4F81
:10073000842E912CB12CA12CA50194010E94980823
:10074000E62FB901CA01EA30F4F4E05DD801EE9376
:100750008D01232B242B252B79F790E080E0109737
:1007600019F0CD010E947403A1960FB6F894DEBF74
:100770000FBECDBFDF91CF911F910F91BF90AF9072
:100780009F908F900895E95CE1CFFF920F931F93A4
:10079000CF93DF93182F062FF42ED22F60E00E9404
:1007A0008700C8E06D2F661F6627661F8F2D0E9489
:1007B0008700DD0F61E0802F0E94870060E0802FBE
:1007C0000E948700C15071F761E0812FDF91CF91C6
:1007D0001F910F91FF900C948700EF92FF920F935F
:1007E0001F93CF93DF93EC017B01198218821B8248
:1007F0001A821D821C82FB0101900020E9F73197CB
:100800008F01061B170BB8016F5F7F4F90E080E0F0
:100810000E94F9090097B9F0998388831B830A83A2
:100820002C813D81232B11F4FC0110821D830C834C
:10083000B70188819981DF91CF911F910F91FF902E
:10084000EF900C94BF0A88819981009711F00E9463
:100850007009198218821D821C821B821A82DF9104
:10086000CF911F910F91FF90EF9008951F920F92DB
:100870000FB60F9211242F933F938F939F93AF93B3
:10088000BF938091CE019091CF01A091D001B09102
:10089000D1013091CD0123E0230F2D3758F501967A
:1008A000A11DB11D2093CD018093CE019093CF0166
:1008B000A093D001B093D1018091C9019091CA0158
:1008C000A091CB01B091CC010196A11DB11D8093E7
:1008D000C9019093CA01A093CB01B093CC01BF9101
:1008E000AF919F918F913F912F910F900FBE0F90DD
:1008F0001F90189526E8230F0296A11DB11DD2CF97
:100900001F920F920FB60F9211242F933F934F9384
:100910005F936F937F938F939F93AF93BF93EF9367
:10092000FF9382ED91E00E948201FF91EF91BF91D0
:10093000AF919F918F917F916F915F914F913F9177
:100940002F910F900FBE0F901F9018951F920F922E
:100950000FB60F9211242F938F939F93EF93FF93D2
:10096000E091E201F091E3018081E091E801F091F2
:10097000E90182FD1BC090818091EB018F5F8F7335
:100980002091EC01821741F0E091EB01F0E0EE5292
:10099000FE4F958F8093EB01FF91EF919F918F9187
:1009A0002F910F900FBE0F901F9018958081F4CF5C
:1009B0001F920F920FB60F9211242F933F934F93D4
:1009C0005F936F937F938F939F93AF93BF93EF93B7
:1009D000FF9380918D0190918E019C012F5F3F4F7D
:1009E00030938E0120938D01883E934018F1109230
:1009F0008E0110928D0190918C0181E0911180E027
:100A000080938C0160918C018DE00E948700809121
:100A1000AC018770823070F06091A8017091A901DB
:100A20008091AA019091AB016F5F7F4F8F4F9F4FD5
:100A30000E943502FF91EF91BF91AF919F918F91ED
:100A40007F916F915F914F913F912F910F900FBECA
:100A50000F901F901895CF93DF9300D000D000D057
:100A6000CDB7DEB7789484B5826084BD84B58160EB
:100A700084BD85B5826085BD85B5816085BD809169
:100A80006E00816080936E001092810080918100E1
:100A900082608093810080918100816080938100D9
:100AA000809180008160809380008091B10084609B
:100AB0008093B1008091B00081608093B0008091FC
:100AC0007A00846080937A0080917A0082608093BB
:100AD0007A0080917A00816080937A0080917A0018
:100AE000806880937A001092C100E091E201F09159
:100AF000E30182E08083E091DE01F091DF0110826A
:100B0000E091E001F091E1018FEC80831092EA0125
:100B1000E091E601F091E70186E08083E091E40155
:100B2000F091E501808180618083E091E401F091A2
:100B3000E501808188608083E091E401F091E50126
:100B4000808180688083E091E401F091E5018081FB
:100B50008F7D808360E08EE00E94D30061E082E0C0
:100B60000E94D30061E083E00E94D30061E084E052
:100B70000E94D30061E085E00E94D30061E086E03E
:100B80000E94D30061E087E00E94D30061E088E02A
:100B90000E94D30061E089E00E94D30061E08AE016
:100BA0000E94D3000E946D03F8941092B00010923E
:100BB000B1001092B20089EF8093B3008091B00031
:100BC00082608093B0008091B10084608093B10016
:100BD00080917000826080937000789480E0E82EAD
:100BE00080E0F82E9FE4D92E24E5C22E31E4732E46
:100BF000662463942FB7F8948091CE019091CF0131
:100C0000A091D001B091D1012FBF8093C5019093E5
:100C1000C601A093C701B093C8014091C101509192
:100C2000C2016091C3017091C401841B950BA60B96
:100C3000B70B4497A105B10508F414C182ED91E00A
:100C40000E946201892B09F4F2C082ED91E00E94BA
:100C5000400190919B01983088F4E92FF0E0ED5C21
:100C6000F94F0C94BA083B06C006C306CB06CE0665
:100C7000D106D406D706853509F0E4C09F5F90936E
:100C80009B01983008F4D3C090919A01809197010C
:100C90009813C5C0809198018093AC01809199010F
:100CA0000E9411028090930190909401A090950170
:100CB000B090960180918F0190919001A091910147
:100CC000B091920188169906AA06BB0621F0C501CB
:100CD000B4010E94350280928F0190929001A092FF
:100CE0009101B092920188E191E00E947403809199
:100CF000AC01869586958695837069E271E08130B6
:100D000051F062E271E0813030F063E371E08230F3
:100D100011F06AE871E0CE0101960E94ED034D8169
:100D20005E8169817A8182ED91E00E94040189816E
:100D30009A81009711F00E94700987E391E00E9468
:100D400074036091AD0170E090E080E04AE00E94A1
:100D5000810385E491E00E9474038091AC01877067
:100D60006DE671E0823091F128F565E571E0882348
:100D700069F16BE571E0813049F16AE871E026C004
:100D800080939A017BCF8093990120919701820FE4
:100D90008093970173CF80939801F7CF809396014A
:100DA000F4CF80939501F1CF80939401EECF80939F
:100DB0009301EBCF6EE571E0843041F061E671E0C4
:100DC000843020F063E771E08530B9F6CE010196FA
:100DD0000E94ED034D815E8169817A8182ED91E00F
:100DE0000E94040189819A81009711F00E94700984
:100DF00087E791E00E9474036091930170919401E0
:100E000080919501909196014AE00E94810385E8C6
:100E100091E00E94740388E891E00E9474031092AC
:100E20009B011092970182ED91E00E94F101809167
:100E3000AC018695869586958370813019F48FEF85
:100E40000E9411028091C5019091C601A091C70135
:100E5000B091C8018093C1019093C201A093C301D6
:100E6000B093C4018FB7F8948090CE019090CF01D9
:100E7000A090D001B090D1018FBF8092BD0190921F
:100E8000BE01A092BF01B092C0018091B9019091C2
:100E9000BA01A091BB01B091BC01A5019401281B2E
:100EA000390B4A0B5B0BDA01C901C297A105B105E9
:100EB00078F08091A7018F3F09F05BC00E946D031D
:100EC0008092B9019092BA01A092BB01B092BC018C
:100ED0008FB7F8948090CE019090CF01A090D00170
:100EE000B090D1018FBF8092B5019092B601A092CF
:100EF000B701B092B8018091B1019091B201A09177
:100F0000B301B091B401A5019401281B390B4A0B20
:100F10005B0BDA01C9018A3F9105A105B105E8F033
:100F20002091AE0148E069E08AE00E94C50320916B
:100F3000AF0145E066E087E00E94C5032091B00163
:100F400042E063E084E00E94C5038092B101909288
:100F5000B201A092B301B092B401E114F10409F41A
:100F600049CE0E946E01882309F444CE0E940000FD
:100F700041CE8091AC018770833058F48130B0F05D
:100F80006092A0010E944A0310929D0110929C0160
:100F900097CF8430A1F038F1853009F091CFD0920D
:100FA000AE01C092AF017092B0018ACF1092A00141
:100FB0001092AE011092AF011092B00181CF8091DA
:100FC0009E0190919F01019690939F0180939E01B5
:100FD0008A30910508F472CF449750F310929F0124
:100FE00010929E016DCF80919C0190919D01019680
:100FF0008C3231E09307C0F490939D0180939C0163
:1010000000919E0110919F010431110520F0809103
:10101000A001811112C00E946D030F5F1F4F10933A
:101020009F0100939E014CCF10929D0110929C0154
:1010300010929F0110929E01E3CF0E944A0340CF7D
:10104000E2EDF1E01382128288EE93E0A0E0B0E0DE
:1010500084839583A683B7838AE091E0918380831C
:1010600085EC90E09587848784EC90E0978786876D
:1010700080EC90E0918B808B81EC90E0938B828B65
:1010800082EC90E0958B848B86EC90E0978B868B3E
:10109000118E128E138E148E08952F923F924F92BE
:1010A0005F926F927F928F929F92AF92BF92CF92F8
:1010B000DF92EF92FF920F931F93CF93DF93CDB701
:1010C000DEB7CA1BDB0B0FB6F894DEBF0FBECDBF79
:1010D00009942A88398848885F846E847D848C844A
:1010E0009B84AA84B984C884DF80EE80FD800C8153
:1010F0001B81AA81B981CE0FD11D0FB6F894DEBF36
:101100000FBECDBFED01089597FB072E16F4009496
:1011100007D077FD09D00E94C00807FC05D03EF437
:10112000909581959F4F0895709561957F4F089593
:10113000A1E21A2EAA1BBB1BFD010DC0AA1FBB1FDB
:10114000EE1FFF1FA217B307E407F50720F0A21B4D
:10115000B30BE40BF50B661F771F881F991F1A94BA
:1011600069F760957095809590959B01AC01BD01E4
:10117000CF010895EE0FFF1F0590F491E02D099423
:10118000AA1BBB1B51E107C0AA1FBB1FA617B707AD
:1011900010F0A61BB70B881F991F5A95A9F78095C9
:1011A0009095BC01CD0108950F931F93CF93DF93CA
:1011B0008230910510F482E090E0E0917102F091AC
:1011C000720230E020E0B0E0A0E0309799F4211501
:1011D000310509F44AC0281B390B24303105D8F5F4
:1011E0008A819B816115710589F1FB01938382835B
:1011F000FE0111C0408151810281138148175907B6
:10120000E0F04817590799F4109761F012960C9383
:10121000129713961C933296CF01DF91CF911F91B5
:101220000F9108950093710210937202F4CF21156B
:10123000310551F04217530738F0A901DB019A013B
:10124000BD01DF01F801C1CFEF01F9CF9093720228
:1012500080937102CDCFFE01E20FF31F8193919332
:101260002250310939832883D7CF20916F023091E2
:101270007002232B41F4209102013091030130933D
:10128000700220936F02209100013091010121151D
:10129000310541F42DB73EB740910401509105014D
:1012A000241B350BE0916F02F0917002E217F307F7
:1012B000A0F42E1B3F0B2817390778F0AC014E5FC6
:1012C0005F4F2417350748F04E0F5F1F5093700291
:1012D00040936F02819391939FCFF0E0E0E09CCF29
:1012E000CF93DF930097E9F0FC01329713821282CB
:1012F000A0917102B0917202ED0130E020E01097F0
:10130000A1F420813181820F931F20916F023091CF
:1013100070022817390709F061C0F0937002E0935A
:101320006F02DF91CF910895EA01CE17DF07E8F54C
:101330004A815B819E0141155105B1F7E901FB83AB
:10134000EA8349915991C40FD51FEC17FD0761F449
:10135000808191810296840F951FE901998388838A
:10136000828193819B838A83F0E0E0E012968D91E5
:101370009C9113970097B9F52D913C911197CD0150
:101380000296820F931F20916F02309170022817EE
:10139000390739F6309751F51092720210927102A6
:1013A000B0937002A0936F02BCCFD383C2834081FD
:1013B0005181840F951FC817D90761F44E5F5F4FA5
:1013C00088819981480F591F518340838A819B816D
:1013D000938382832115310509F0B0CFF093720217
:1013E000E09371029ECFFD01DC01C0CF1382128217
:1013F000D7CFB0E0A0E0EFEFF9E00C944F088C01FC
:10140000009751F4CB010E94D4088C01C801CDB7DC
:10141000DEB7E0E10C946B08FC01E60FF71F9C01BE
:1014200022503109E217F30708F49DC0D901CD918C
:10143000DC911197C617D70798F0C530D10530F366
:10144000CE0104978617970708F3C61BD70B229780
:10145000C193D1936D937C93CF010E947009D6CF35
:101460005B01AC1ABD0A4C018C0E9D1EA09171024D
:10147000B0917202512C412CF12CE12C109731F5D6
:1014800080916F02909170028815990509F05CC0F7
:101490004616570608F058C080910001909101014E
:1014A000009741F48DB79EB740910401509105011A
:1014B000841B950BE817F90708F055C0F0937002EC
:1014C000E0936F02F90171836083A0CF8D919C91AD
:1014D000119712966C90129713967C901397A815FB
:1014E000B90559F56C0142E0C40ED11CCA14DB04E5
:1014F00020F1AC014A195B09DA011296159780F0C8
:101500006282738251834083D9016D937C93E1148D
:10151000F10471F0D7011396FC93EE93129776CFF6
:1015200022968C0F9D1FF90191838083F301EFCFE9
:10153000F0937202E093710269CF4816590608F4DD
:101540002C017D01D3019ACFCB010E94D4087C01EC
:10155000009749F0AE01B8010E94B60AC8010E9486
:101560007009870153CF10E000E050CFFB01DC0190
:1015700002C001900D9241505040D8F70895FB01F0
:10158000DC0101900D920020E1F70895F894FFCF5F
:1015900000007302800000000000A401040131017A
:1015A000F1016201400154010A7C204D6F64653AEB
:1015B00020004D616E75616C004175746F6D6174D2
:1015C0006963004F6666007C20496E74656E7369BE
:1015D00074793A20007C20436C6F636B20537461F4
:1015E00074653A2000537461727400495000415090
:1015F0000053657276657220446F776E0056616C99
:101600006964004F5441007C2054696D65737461B6
:0C1610006D703A2000207C000D0A0000E4
:00000001FF
