:100000000C945D000C9485000C9485000C94850084
:100010000C9485000C9485000C9485000C94F003DE
:100020000C9485000C9485000C9485000C9485003C
:100030000C9485000C9485000C9485000C9485002C
:100040000C944E030C9485000C94BE030C949803FE
:100050000C9485000C9485000C9485000C9485000C
:100060000C9485000C9485000000000024002700FB
:100070002A0000000000250028002B0004040404CE
:100080000404040402020202020203030303030342
:10009000010204081020408001020408102001021F
:1000A00004081020000000080002010000030407FB
:1000B0000000000000000000E00611241FBECFEF8A
:1000C000D8E0DEBFCDBF21E0A2E1B1E001C01D92CA
:1000D000A43FB207E1F711E0A0E0B1E0EEEBFEE0F3
:1000E00002C005900D92A231B107D9F710E0CDE51D
:1000F000D0E004C02197FE010E944307CC35D10710
:10010000C9F70E9443040C945D070C94000090E032
:10011000FC01EC55FF4F2491FC01E057FF4F349157
:10012000FC01E458FF4FE491EE23C9F0222339F09B
:10013000233001F1A8F4213019F1223029F1F0E047
:10014000EE0FFF1FEE58FF4FA591B4918FB7F894B3
:10015000EC91611126C030953E233C938FBF0895EA
:100160002730A9F02830C9F0243049F78091800069
:100170008F7D03C0809180008F7780938000DFCFD8
:1001800084B58F7784BDDBCF84B58F7DFBCF809125
:10019000B0008F778093B000D2CF8091B0008F7D78
:1001A000F9CF3E2BDACFCF93DF9390E0FC01E057FD
:1001B000FF4F249184589F4FFC0184918823D1F0F4
:1001C00090E0880F991FFC01E859FF4FA591B49169
:1001D000FC01EE58FF4FC591D49161110EC09FB73D
:1001E000F8948C91E22FE0958E238C932881E22362
:1001F000E8839FBFDF91CF9108958FB7F894EC917A
:10020000E22BEC938FBFF6CFAF92BF92CF92DF92EB
:10021000EF92FF920F931F93CF93DF936C017B01BB
:100220008B01040F151FEB015E01AE18BF08C0174C
:10023000D10759F06991D601ED91FC910190F081BF
:10024000E02DC6010995892B79F7C501DF91CF9182
:100250001F910F91FF90EF90DF90CF90BF90AF90E4
:100260000895FC01538D448D252F30E0842F90E0BC
:10027000821B930B541710F0CF96089501970895A1
:10028000FC01918D828D981761F0A28DAE0FBF2F6A
:10029000B11D5D968C91928D9F5F9F73928F90E0C0
:1002A00008958FEF9FEF0895FC01918D828D98172F
:1002B00031F0828DE80FF11D858D90E008958FEF6C
:1002C0009FEF0895FC01918D228D892F90E0805C35
:1002D0009F4F821B91098F739927089582E291E0C5
:1002E0000E94620121E0892B09F420E0822F089509
:1002F00080E090E0892B29F00E946E0181110C941E
:1003000000000895FC01A48DA80FB92FB11DA35AB8
:10031000BF4F2C91848D90E001968F739927848F25
:10032000A689B7892C93A089B1898C918370806448
:100330008C93938D848D981306C00288F389E02DE9
:1003400080818F7D80830895EF92FF920F931F939A
:10035000CF93DF93EC0181E0888F9B8D8C8D981378
:100360001AC0E889F989808185FF15C09FB7F89484
:10037000EE89FF896083E889F989808183708064D0
:1003800080839FBF81E090E0DF91CF911F910F911B
:10039000FF90EF900895F62E0B8D10E00F5F1F4F2A
:1003A0000F731127E02E8C8D8E110CC00FB607FC39
:1003B000FACFE889F989808185FFF5CFCE010E94C7
:1003C0008201F1CFEB8DEC0FFD2FF11DE35AFF4FB2
:1003D000F0829FB7F8940B8FEA89FB898081806255
:1003E000CFCFCF93DF93EC01888D8823B9F0AA8912
:1003F000BB89E889F9898C9185FD03C0808186FDE0
:100400000DC00FB607FCF7CF8C9185FFF2CF80812E
:1004100085FFEDCFCE010E948201E9CFDF91CF9120
:1004200008954F925F926F927F928F929F92AF92B8
:10043000BF92CF92DF92EF92FF92CF93DF93CDB72F
:10044000DEB728970FB6F894DEBF0FBECDBF6B01A5
:100450007C018091CE0187708130C9F018F0853021
:1004600008F46BC028960FB6F894DEBF0FBECDBF60
:10047000DF91CF91FF90EF90DF90CF90BF90AF9042
:100480009F908F907F906F905F904F900895C701DD
:1004900020EA36E841E050E00E9421076AE0862E1B
:1004A000912CA12CB12CCA01B901A50194010E9483
:1004B00021076093C301C701B60120E137E240E0A4
:1004C00050E00E942107CA01B901A50194010E94D0
:1004D00021076093C401C701B60128EE33E040E074
:1004E00050E00E942107CA01B901A50194010E94B0
:1004F00021076093C501C701B60124E630E040E062
:1005000050E00E942107CA01B901A50194010E948F
:1005100021076093C601C701B601A50194010E949D
:100520002107F62ECA01B901A50194010E942107F5
:100530006093C701F092C80195CFC70120E13EE06A
:1005400040E050E00E942107CA01B90128E130E0F3
:1005500040E050E00E94210769837A838B839C836B
:100560008CE3882E912CA12CB12CC701B601A501DA
:1005700094010E9421076D837E838F839887CA012F
:10058000B901A50194010E9421072B013C019AE0C9
:10059000892E912CA12CB12C69817A818B819C812F
:1005A000A50194010E9421072093C3016093C40117
:1005B000C301B201A50194010E9421072093C50146
:1005C0006093C6016D817E818F819885A50194011C
:1005D0000E9421072093C7016093C8018091CA013E
:1005E0009091CB01A091CC01B091CD01C816D90654
:1005F000EA06FB06D1F08091CA019091CB01A0914F
:10060000CC01B091CD018C199D09AE09BF090B97A2
:10061000A105B10508F426CFC092CA01D092CB0142
:10062000E092CC01F092CD011DCF8091CA01909152
:10063000CB01A091CC01B091CD01A7019601281B5F
:10064000390B4A0B5B0BDA01C901E1CFFF920F9323
:100650001F93CF93DF93182F062FF42ED22F60E035
:100660000E948700C8E06D2F661F6627661F8F2DCA
:100670000E948700DD0F61E0802F0E94870060E00C
:10068000802F0E948700C15071F761E0812FDF91B8
:10069000CF911F910F91FF900C9487001F920F92A2
:1006A0000FB60F9211242F933F938F939F93AF9385
:1006B000BF938091F0019091F101A091F201B0916E
:1006C000F3013091EF0123E0230F2D3758F5019608
:1006D000A11DB11D2093EF018093F0019093F101D2
:1006E000A093F201B093F3018091EB019091EC01A2
:1006F000A091ED01B091EE010196A11DB11D809375
:10070000EB019093EC01A093ED01B093EE01BF914A
:10071000AF919F918F913F912F910F900FBE0F90AE
:100720001F90189526E8230F0296A11DB11DD2CF68
:100730001F920F920FB60F9211242F933F934F9356
:100740005F936F937F938F939F93AF93BF93EF9339
:10075000FF9382E291E00E948201FF91EF91BF91AD
:10076000AF919F918F917F916F915F914F913F9149
:100770002F910F900FBE0F901F9018951F920F9200
:100780000FB60F9211242F938F939F93EF93FF93A4
:10079000E0913201F09133018081E0913801F091D4
:1007A000390182FD1BC0908180913B018F5F8F7367
:1007B00020913C01821741F0E0913B01F0E0EE5DB9
:1007C000FE4F958F80933B01FF91EF919F918F9109
:1007D0002F910F900FBE0F901F9018958081F4CF2E
:1007E0001F920F920FB60F9211242F933F934F93A6
:1007F0005F936F937F938F939F93AF93BF93EF9389
:10080000FF9380911301909114019C012F5F3F4F42
:100810003093140120931301883E934018F11092F5
:100820001401109213019091120181E0911180E066
:1008300080931201609112018DE00E9487008091E7
:10084000CE018770823070F06091CA017091CB0147
:100850008091CC019091CD016F5F7F4F8F4F9F4F63
:100860000E941102FF91EF91BF91AF919F918F91E3
:100870007F916F915F914F913F912F910F900FBE9C
:100880000F901F901895789484B5826084BD84B5CC
:10089000816084BD85B5826085BD85B5816085BD7B
:1008A00080916E00816080936E0010928100809133
:1008B00081008260809381008091810081608093BB
:1008C0008100809180008160809380008091B100E0
:1008D00084608093B1008091B00081608093B0000B
:1008E00080917A00846080937A0080917A0082609F
:1008F00080937A0080917A00816080937A00809161
:100900007A00806880937A001092C100E0913201F1
:10091000F091330182E08083E0912E01F0912F016C
:100920001082E0913001F09131018FEC80831092C0
:100930003A01E0913601F091370186E08083E09141
:100940003401F0913501808180618083E091340130
:10095000F0913501808188608083E0913401F091CD
:100960003501808180688083E0913401F091350108
:1009700080818F7D808360E08EE00E94D30061E003
:1009800082E00E94D30061E083E00E94D30061E036
:1009900084E00E94D30061E085E00E94D30061E022
:1009A00086E00E94D30061E087E00E94D30061E00E
:1009B00088E00E94D30061E089E00E94D30061E0FA
:1009C0008AE00E94D3008FEF8093D0018093D10101
:1009D0008093D201F8941092B0001092B10010925E
:1009E000B20089EF8093B3008091B0008260809361
:1009F000B0008091B10084608093B100809170005C
:100A00008260809370007894EE24E39404E610E012
:100A1000C0E0D0E0FF24FA948FB7F8948090F00102
:100A20009090F101A090F201B090F3018FBF8092FD
:100A3000E7019092E801A092E901B092EA01809169
:100A4000E3019091E401A091E501B091E601A501D7
:100A50009401281B390B4A0B5B0BDA01C90144973F
:100A6000A105B10508F46BC082E291E00E94620129
:100A7000892B09F451C082E291E00E9440019091DB
:100A80002101983088F4E92FF0E0E75BFA4F0C94ED
:100A900043075105D205D505DD05E005E305E6056B
:100AA000E905853509F043C09F5F90932101983097
:100AB00098F19091200180911D01981325C080919B
:100AC0001E018093CE014090190150901A01609050
:100AD0001B0170901C018091150190911601A0914D
:100AE0001701B0911801481659066A067B0621F0D5
:100AF000C301B2010E9411024092150150921601E9
:100B000060921701709218011092210110921D013C
:100B100082E291E00E94F1018091CE018695869556
:100B200086958370823009F057C0F092C901809297
:100B3000E3019092E401A092E501B092E6018FB743
:100B4000F8944091F0015091F1016091F20170919F
:100B5000F3018FBF4093DF015093E0016093E10107
:100B60007093E2018091DB019091DC01A091DD01A5
:100B7000B091DE015A016B01A81AB90ACA0ADB0A50
:100B8000D601C501C297A105B10508F476C08091D0
:100B9000C9018F3FB1F58093D0018093D10180933B
:100BA000D20163C0809320017FCF80931F012091E9
:100BB0001D01820F80931D0177CF80931E01F7CF17
:100BC00080931C01F4CF80931B01F1CF80931A0115
:100BD000EECF80931901EBCF8091CE01869586955B
:100BE0008695837009F0A3CF20911F012E9DC0012F
:100BF000921B1124B8010E940D076F5F6093C90119
:100C000096CF8091CE018770833060F5813008F4F3
:100C100084C02091C4018091C30190E1299F90017B
:100C200011248F70822B8093D0012091C601809176
:100C3000C50190E1299F900111248F70822B809330
:100C4000D1012091C8018091C70190E1299F9001B5
:100C500011248F70822B8093D2011092C2011092C6
:100C6000C10103C0853008F45FC04093DB0150939D
:100C7000DC016093DD017093DE018FB7F894809002
:100C8000F0019090F101A090F201B090F3018FBFBC
:100C90008092D7019092D801A092D901B092DA0146
:100CA0008091D3019091D401A091D501B091D6014A
:100CB000A5019401281B390B4A0B5B0BDA01C90112
:100CC0008A3F9105A105B105E8F02091D00148E0E7
:100CD00069E08AE00E9426032091D10145E066E0A8
:100CE00087E00E9426032091D20142E063E084E085
:100CF0000E9426038092D3019092D401A092D50144
:100D0000B092D601209709F487CE0E946E01882305
:100D100009F482CE0E9400007FCE1092D001109282
:100D2000D1011092D201A1CF8091C1019091C20155
:100D300001968C3221E09207B8F49093C20180931F
:100D4000C1018091BF019091C00184319105A8F447
:100D5000F092D001F092D101F092D20101969093DD
:100D6000C0018093BF0181CF1092C2011092C101D6
:100D70001092C0011092BF01E4CF2091C401809174
:100D8000C30190E1299F900111248F70822B8093E1
:100D9000D0012091C6018091C50190E1299F900169
:100DA00011248F70822B8093D1012091C8018091F2
:100DB000C70190E1299F900111248F70822BEFCE03
:100DC000E2E2F1E01382128288EE93E0A0E0B0E06C
:100DD00084839583A683B78384E091E091838083A5
:100DE00085EC90E09587848784EC90E097878687F0
:100DF00080EC90E0918B808B81EC90E0938B828BE8
:100E000082EC90E0958B848B86EC90E0978B868BC0
:100E1000118E128E138E148E089597FB072E16F4E2
:100E2000009407D077FD09D00E94490707FC05D040
:100E30003EF4909581959F4F0895709561957F4FF1
:100E40000895A1E21A2EAA1BBB1BFD010DC0AA1F0B
:100E5000BB1FEE1FFF1FA217B307E407F50720F023
:100E6000A21BB30BE40BF50B661F771F881F991F9E
:100E70001A9469F760957095809590959B01AC01E7
:100E8000BD01CF010895EE0FFF1F0590F491E02DF5
:100E90000994AA1BBB1B51E107C0AA1FBB1FA617C1
:100EA000B70710F0A61BB70B881F991F5A95A9F713
:0E0EB00080959095BC01CD010895F894FFCF78
:100EBE0000000000A40104013101F10162014001B2
:020ECE005401CD
:00000001FF
