:100000000C945D000C9485000C9485000C94850084
:100010000C9485000C9485000C9485000C94C80306
:100020000C9485000C9485000C9485000C9485003C
:100030000C9485000C9485000C9485000C9485002C
:100040000C9426030C9485000C9496030C94700376
:100050000C9485000C9485000C9485000C9485000C
:100060000C9485000C9485000000000024002700FB
:100070002A0000000000250028002B0004040404CE
:100080000404040402020202020203030303030342
:10009000010204081020408001020408102001021F
:1000A00004081020000000080002010000030407FB
:1000B0000000000000000000740A11241FBECFEFF2
:1000C000D8E0DEBFCDBF22E0A0E3B1E001C01D92C9
:1000D000AD31B207E1F711E0A0E0B1E0E6EEF5E105
:1000E00002C005900D92A033B107D9F710E0CDE51D
:1000F000D0E004C02197FE010E94D70ACC35D10779
:10010000C9F70E941B040C94F10A0C94000090E0C3
:10011000FC01EC55FF4F2491FC01E057FF4F349157
:10012000FC01E458FF4FE491EE23C9F0222339F09B
:10013000233001F1A8F4213019F1223029F1F0E047
:10014000EE0FFF1FEE58FF4FA591B4918FB7F894B3
:10015000EC91611126C030953E233C938FBF0895EA
:100160002730A9F02830C9F0243049F78091800069
:100170008F7D03C0809180008F7780938000DFCFD8
:1001800084B58F7784BDDBCF84B58F7DFBCF809125
:10019000B0008F778093B000D2CF8091B0008F7D78
:1001A000F9CF3E2BDACFCF93DF9390E0FC01E057FD
:1001B000FF4F249184589F4FFC0184918823D1F0F4
:1001C00090E0880F991FFC01E859FF4FA591B49169
:1001D000FC01EE58FF4FC591D49161110EC09FB73D
:1001E000F8948C91E22FE0958E238C932881E22362
:1001F000E8839FBFDF91CF9108958FB7F894EC917A
:10020000E22BEC938FBFF6CFAF92BF92CF92DF92EB
:10021000EF92FF920F931F93CF93DF936C017B01BB
:100220008B01040F151FEB015E01AE18BF08C0174C
:10023000D10759F06991D601ED91FC910190F081BF
:10024000E02DC6010995892B79F7C501DF91CF9182
:100250001F910F91FF90EF90DF90CF90BF90AF90E4
:100260000895FC01538D448D252F30E0842F90E0BC
:10027000821B930B541710F0CF96089501970895A1
:10028000FC01918D828D981761F0A28DAE0FBF2F6A
:10029000B11D5D968C91928D9F5F9F73928F90E0C0
:1002A00008958FEF9FEF0895FC01918D828D98172F
:1002B00031F0828DE80FF11D858D90E008958FEF6C
:1002C0009FEF0895FC01918D228D892F90E0805C35
:1002D0009F4F821B91098F739927089580E491E0C5
:1002E0000E94620121E0892B09F420E0822F089509
:1002F00080E090E0892B29F00E946E0181110C941E
:1003000000000895FC01A48DA80FB92FB11DA35AB8
:10031000BF4F2C91848D90E001968F739927848F25
:10032000A689B7892C93A089B1898C918370806448
:100330008C93938D848D981306C00288F389E02DE9
:1003400080818F7D80830895EF92FF920F931F939A
:10035000CF93DF93EC0181E0888F9B8D8C8D981378
:100360001AC0E889F989808185FF15C09FB7F89484
:10037000EE89FF896083E889F989808183708064D0
:1003800080839FBF81E090E0DF91CF911F910F911B
:10039000FF90EF900895F62E0B8D10E00F5F1F4F2A
:1003A0000F731127E02E8C8D8E110CC00FB607FC39
:1003B000FACFE889F989808185FFF5CFCE010E94C7
:1003C0008201F1CFEB8DEC0FFD2FF11DE35AFF4FB2
:1003D000F0829FB7F8940B8FEA89FB898081806255
:1003E000CFCFCF93DF93EC01888D8823B9F0AA8912
:1003F000BB89E889F9898C9185FD03C0808186FDE0
:100400000DC00FB607FCF7CF8C9185FFF2CF80812E
:1004100085FFEDCFCE010E948201E9CFDF91CF9120
:1004200008954F925F926F927F928F929F92AF92B8
:10043000BF92CF92DF92EF92FF92CF93DF93CDB72F
:10044000DEB728970FB6F894DEBF0FBECDBF6B01A5
:100450007C018091EF0187708130C9F018F0853000
:1004600008F46BC028960FB6F894DEBF0FBECDBF60
:10047000DF91CF91FF90EF90DF90CF90BF90AF9042
:100480009F908F907F906F905F904F900895C701DD
:1004900020EA36E841E050E00E94B50A6AE0862E84
:1004A000912CA12CB12CCA01B901A50194010E9483
:1004B000B50A6093E401C701B60120E137E240E0EC
:1004C00050E00E94B50ACA01B901A50194010E9439
:1004D000B50A6093E501C701B60128EE33E040E0BC
:1004E00050E00E94B50ACA01B901A50194010E9419
:1004F000B50A6093E601C701B60124E630E040E0AA
:1005000050E00E94B50ACA01B901A50194010E94F8
:10051000B50A6093E701C701B601A50194010E94E5
:10052000B50AF62ECA01B901A50194010E94B50AC7
:100530006093E801F092E90195CFC70120E13EE028
:1005400040E050E00E94B50ACA01B90128E130E05C
:1005500040E050E00E94B50A69837A838B839C83D4
:100560008CE3882E912CA12CB12CC701B601A501DA
:1005700094010E94B50A6D837E838F839887CA0198
:10058000B901A50194010E94B50A2B013C019AE032
:10059000892E912CA12CB12C69817A818B819C812F
:1005A000A50194010E94B50A2093E4016093E5013E
:1005B000C301B201A50194010E94B50A2093E6018E
:1005C0006093E7016D817E818F819885A5019401FB
:1005D0000E94B50A2093E8016093E9018091EB0144
:1005E0009091EC01A091ED01B091EE01C816D906F1
:1005F000EA06FB06D1F08091EB019091EC01A0910D
:10060000ED01B091EE018C199D09AE09BF090B9760
:10061000A105B10508F426CFC092EB01D092EC0100
:10062000E092ED01F092EE011DCF8091EB019091EF
:10063000EC01A091ED01B091EE01A7019601281BFC
:10064000390B4A0B5B0BDA01C901E1CF1F920F9204
:100650000FB60F9211242F933F938F939F93AF93D5
:10066000BF938091190290911A02A0911B02B09140
:100670001C023091180223E0230F2D3758F5019604
:10068000A11DB11D209318028093190290931A02A4
:10069000A0931B02B0931C0280911402909115024A
:1006A000A0911602B09117020196A11DB11D809371
:1006B000140290931502A0931602B0931702BF91F3
:1006C000AF919F918F913F912F910F900FBE0F90FF
:1006D0001F90189526E8230F0296A11DB11DD2CFB9
:1006E0001F920F920FB60F9211242F933F934F93A7
:1006F0005F936F937F938F939F93AF93BF93EF938A
:10070000FF9380E491E00E948201FF91EF91BF91FD
:10071000AF919F918F917F916F915F914F913F9199
:100720002F910F900FBE0F901F9018951F920F9250
:100730000FB60F9211242F938F939F93EF93FF93F4
:10074000E0915001F09151018081E0915601F091CA
:10075000570182FD1BC09081809159018F5F8F737B
:1007600020915A01821741F0E0915901F0E0E05CDC
:10077000FE4F958F80935901FF91EF919F918F913B
:100780002F910F900FBE0F901F9018958081F4CF7E
:100790001F920F920FB60F9211242F933F934F93F6
:1007A0005F936F937F938F939F93AF93BF93EF93D9
:1007B000FF9380913101909132019C012F5F3F4F57
:1007C0003093320120933101883E934018F110920A
:1007D0003201109231019091300181E0911180E05D
:1007E00080933001609130018DE00E9487008091FC
:1007F000EF018770823070F06091EB017091EC0135
:100800008091ED019091EE016F5F7F4F8F4F9F4F71
:100810000E941102FF91EF91BF91AF919F918F9133
:100820007F916F915F914F913F912F910F900FBEEC
:100830000F901F901895789484B5826084BD84B51C
:10084000816084BD85B5826085BD85B5816085BDCB
:1008500080916E00816080936E0010928100809183
:10086000810082608093810080918100816080930B
:100870008100809180008160809380008091B10030
:1008800084608093B1008091B00081608093B0005B
:1008900080917A00846080937A0080917A008260EF
:1008A00080937A0080917A00816080937A008091B1
:1008B0007A00806880937A001092C100E091500124
:1008C000F091510182E08083E0914C01F0914D0163
:1008D0001082E0914E01F0914F018FEC80831092D5
:1008E0005801E0915401F091550186E08083E09138
:1008F0005201F0915301808180618083E091520127
:10090000F0915301808188608083E0915201F091E1
:100910005301808180688083E0915201F0915301FE
:1009200080818F7D808360E08EE00E94D30061E053
:1009300086E00E94D30061E087E00E94D30061E07E
:1009400088E00E94D30061E089E00E94D3008FEF2D
:100950008093EA01F8941092B0001092B1001092C6
:10096000B20089EF8093B3008091B00082608093E1
:10097000B0008091B10084608093B10080917000DC
:1009800082608093700078943DEAC32E30E0D32ECD
:1009900040E4642E54E6E52EF12C00E010E07724CC
:1009A0007A942FB7F8948091190290911A02A0912D
:1009B0001B02B0911C022FBF809310029093110272
:1009C000A0931202B093130240910C0250910D02B9
:1009D00060910E0270910F02841B950BA60BB70B52
:1009E0004497A105B10508F4ACC080E491E00E94F1
:1009F0006201892B09F451C080E491E00E9440011A
:100A000090913F01983088F4E92FF0E0E65FFA4FCB
:100A10000C94D70A120507060A06120615061806D0
:100A20001B061E06853509F043C09F5F90933F016A
:100A3000983098F190913E0180913B01981325C028
:100A400080913C018093EF018090370190903801B4
:100A5000A0903901B0903A01809133019091340116
:100A6000A0913501B091360188169906AA06BB06F9
:100A700021F0C501B4010E941102809233019092CD
:100A80003401A0923501B092360110923F011092CC
:100A90003B0180E491E00E94F1018091EF01869595
:100AA000869586958370823009F0CBC07092EA01FA
:100AB0008091EA0120910001821B990B9093DE0145
:100AC0008093DD011816190644F42F5F209300016E
:100AD00001969093DE018093DD018091DD0190917C
:100AE000DE0197FF0AC020910001215020930001F0
:100AF00001979093DE018093DD018091F101C09117
:100B00000001D0E0882311F0CFEFD0E061E089E070
:100B10000E94D300209709F0D4C060E089E00E94D1
:100B200087008091100290911102A0911202B09161
:100B3000130280930C0290930D02A0930E02B093C7
:100B40000F022FB7F8948091190290911A02A09188
:100B50001B02B0911C022FBF8093080290930902E0
:100B6000A0930A02B0930B02409104025091050237
:100B70006091060270910702841B950BA60BB70BC0
:100B8000C297A105B10508F48FC1F091EF01F7708C
:100B90008091F4017091F5016091F3012091F701CA
:100BA0005091F8014091F6019091FA01E091FB011A
:100BB0003091F901F23009F4A8C308F0C8C0FF234E
:100BC00009F4F0C0F13009F418C4707871607093C2
:100BD000F5016F71606C6093F30180768D60809396
:100BE000F40150785F645093F8014F71406840936E
:100BF000F601207623602093F701E078E766E09322
:100C0000FB013F7130643093F901907637C38093D4
:100C10003E010BCF80933D0120913B01820F8093D9
:100C20003B0103CF80933C01F7CF80933A01F4CF8F
:100C300080933901F1CF80933801EECF8093370153
:100C4000EBCF8091EF01869586958695837089F428
:100C500020913D0130E041E0429FC001439F900D53
:100C6000921B1124B7010E94A10A6F5F6093EA01F1
:100C70001FCF8091EF018695869586958370813090
:100C800009F016CF60927C0080917A008064809396
:100C90007A0080917A0086FDFCCF90917800809157
:100CA000790089279827892796958795969587951E
:100CB000803F28F08091EA018093EA01F9CE80EF2D
:100CC000FBCFCF3FD10511F461E028CFF60184912D
:100CD000833019F140F48130B1F08230C9F0C0386E
:100CE000D10594F71ACF873011F1883041F1843063
:100CF000B1F780918000806280938000D0938B0058
:100D0000C0938A000ECF84B5806884BDC7BD09CF6B
:100D100084B5806284BDC8BD04CF809180008068A6
:100D200080938000D0938900C0938800FACE809190
:100D3000B00080688093B000C093B300F2CE809181
:100D4000B00080628093B000C093B400EACEF4306B
:100D500009F456C008F495C2F53009F036CF109268
:100D6000E30170787E677093F5016F71606C60933A
:100D7000F301807683608093F40150785767509335
:100D8000F8014F7140624093F60120762093F701FD
:100D90009068E078E093FB013F7130623093F90195
:100DA000907E24C01092E301707877637093F50110
:100DB0006F71606C6093F301807683618093F401BE
:100DC00050785E605093F8014F7140684093F6018F
:100DD000207623602093F701E078EE67E093FB0133
:100DE0003F7130623093F90190769C609093FA01E4
:100DF0008091EF01877E8093EF011092EA0142C05B
:100E0000A091E101B091E2011196A03BF4E0BF078F
:100E100008F0C1C1B093E201A093E101A091DF010C
:100E2000B091E001AC33B10520F0F091E301F11194
:100E3000BBC1707875617093F5016F71606C6093E0
:100E4000F301807683618093F40150785F60509362
:100E5000F8014F7140644093F6012076276020939B
:100E6000F701E078E764E093FB013F71306C309369
:100E7000F901907691619093FA011196B093E00197
:100E8000A093DF011092F201809108029091090273
:100E9000A0910A02B0910B02809304029093050284
:100EA000A0930602B09307028FB7F89480901902BE
:100EB00090901A02A0901B02B0901C028FBF8092EB
:100EC000000290920102A0920202B092030280916D
:100ED000FC019091FD01A091FE01B091FF01A501DF
:100EE0009401281B390B4A0B5B0BDA01C9018A3FBD
:100EF0009105A105B10508F442C18091F501806812
:100F00008093F5012091F4018091F801806880932D
:100F1000F8019091F7018091FB0180688093FB01BB
:100F20008091FA01206220642093F4012091F30162
:100F300020612093F301906290649093F701909167
:100F4000F60190619093F601806280648093FA01CB
:100F50008091F90180618093F901C4E0D0E060E004
:100F600087E00E9487006091F30170E00C2E02C0C0
:100F7000759567950A94E2F7617086E00E94870094
:100F800061E087E00E9487002196C830D10539F7DB
:100F9000D0E0C0E060E087E00E9487006091F4014B
:100FA00070E00C2E02C0759567950A94E2F76170A7
:100FB00086E00E94870061E087E00E94870021961A
:100FC000C830D10539F7D0E0C0E060E087E00E948A
:100FD00087006091F50170E00C2E02C07595679551
:100FE0000A94E2F7617086E00E94870061E087E082
:100FF0000E9487002196C830D10539F7C4E0D0E0BF
:1010000060E087E00E9487006091F60170E00C2E9E
:1010100002C0759567950A94E2F7617086E00E94B8
:10102000870061E087E00E9487002196C830D105E3
:1010300039F7D0E0C0E060E087E00E94870060916F
:10104000F70170E00C2E02C0759567950A94E2F7DF
:10105000617086E00E94870061E087E00E9487005F
:101060002196C830D10539F7D0E0C0E060E087E0D4
:101070000E9487006091F80170E00C2E02C0759507
:1010800067950A94E2F7617086E00E94870061E04C
:1010900087E00E9487002196C830D10539F7C4E067
:1010A000D0E060E087E00E9487006091F90170E085
:1010B0000C2E02C0759567950A94E2F7617086E080
:1010C0000E94870061E087E00E9487002196C83077
:1010D000D10539F7D0E0C0E060E087E00E948700EA
:1010E0006091FA0170E00C2E02C0759567950A9424
:1010F000E2F7617086E00E94870061E087E00E946D
:1011000087002196C830D10539F7D0E0C0E060E013
:1011100087E00E9487006091FB0170E00C2E02C006
:10112000759567950A94E2F7617086E00E948700E2
:1011300061E087E00E9487002196C830D10539F729
:1011400061E088E00E94870060E087E00E948700FD
:101150008091F201882309F4C4C18091F10191E0EA
:1011600089278093F10160E088E00E9487008092E7
:10117000FC019092FD01A092FE01B092FF010115C9
:10118000110509F40ECC0E946E01882309F409CCE4
:101190000E94000006CC1092E2011092E101109230
:1011A000E0011092DF013ACEA091E401B0E0AD5E23
:1011B000BE4FFC91F0FB87F98093F401F6957078AF
:1011C000F72BF093F501A091E501B0E0AD5EBE4FC5
:1011D0007C91F72FF295FF0FF07E6F716F2B60936C
:1011E000F301769576957695807E872B8093F40132
:1011F000A091E601B0E0AD5EBE4F8C9180FB27F977
:101200002093F70186955078852B8093F801A09163
:10121000E701B0E0AD5EBE4F8C91582F5295550F4F
:10122000507E4F71452B4093F601869586958695A5
:10123000207E282B2093F701A091E801B0E0AD5E5D
:10124000BE4F8C9180FB97F99093FA018695E078D8
:101250008E2B8093FB01E091E901F0E0ED5EFE4F03
:101260008081282F2295220F207E3F71322B3093D0
:10127000F901869586958695907E982B9093FA0134
:1012800001CEA091E101B091E2011196A03BF4E002
:10129000BF0790F5B093E201A093E101A091DF01B7
:1012A000B091E001AC33B10520F0F091E301F11110
:1012B0007BCF70787E647093F5016F71606460938A
:1012C000F301807687608093F401507855615093E4
:1012D000F8014F71406C4093F60120762161209314
:1012E000F701E078E063E093FB013F7130683093F1
:1012F000F90190769761BFCD1092E2011092E10161
:101300001092E0011092DF01C9CFF1E0F093E30108
:10131000A091E401B0E0AD5EBE4FFC91F0FB87F917
:101320008093F401F6957078F72BF093F501A09176
:10133000E501B0E0AD5EBE4F7C91F72FF295FF0F57
:10134000F07E6F716F2B6093F301769576957695AD
:10135000807E872B8093F401A091E601B0E0AD5E22
:10136000BE4F8C9180FB27F92093F701869550782A
:10137000852B8093F801A091E701B0E0AD5EBE4FF0
:101380008C91582F5295550F507E4F71452B40939D
:10139000F601869586958695207E282B2093F70169
:1013A000A091E801B0E0AD5EBE4F8C9180FB97F953
:1013B0009093FA018695E0788E2B8093FB01E09163
:1013C000E901F0E0ED5EFE4F8081282F2295220F8B
:1013D000207E3F71322B3093F90186958695869554
:1013E000907E982B9093FA011092E2011092E10105
:1013F0001092E0011092DF0145CDA091E401B0E030
:10140000AD5EBE4FFC91F0FB87F98093F401F69539
:101410007078F72BF093F501A091E501B0E0AD5E97
:10142000BE4F7C91F72FF295FF0FF07E6F716F2BFF
:101430006093F301769576957695807E872B8093E1
:10144000F401A091E601B0E0AD5EBE4F8C91206842
:101450002093F70186955078582B5093F801A0916E
:10146000E701B0E0AD5EBE4F8C91582F5295550FFD
:10147000507E4F71452B4093F60186958695869553
:10148000207E282B2093F701A091E801B0E0AD5E0B
:10149000BE4F8C9180FB97F99093FA018695E07886
:1014A0008E2B8093FB01E091E901F0E0ED5EFE4FB1
:1014B00080818160282F2295220F207E3F71322B60
:1014C0003093F901869586958695907E982B90931A
:1014D000FA018091EF01877E8093EF011092EA017B
:1014E00083CF1092F1013FCEE0E4F1E0138212824B
:1014F00088EE93E0A0E0B0E084839583A683B78371
:1015000085E091E09183808385EC90E095878487E6
:1015100084EC90E09787868780EC90E0918B808BBD
:1015200081EC90E0938B828B82EC90E0958B848BA6
:1015300086EC90E0978B868B118E128E138E148E14
:10154000089597FB072E16F4009407D077FD09D075
:101550000E94DD0A07FC05D03EF4909581959F4FCF
:101560000895709561957F4F0895A1E21A2EAA1BE8
:10157000BB1BFD010DC0AA1FBB1FEE1FFF1FA21743
:10158000B307E407F50720F0A21BB30BE40BF50B40
:10159000661F771F881F991F1A9469F760957095C9
:1015A000809590959B01AC01BD01CF010895EE0F90
:1015B000FF1F0590F491E02D0994AA1BBB1B51E17C
:1015C00007C0AA1FBB1FA617B70710F0A61BB70BB3
:1015D000881F991F5A95A9F780959095BC01CD0158
:0615E0000895F894FFCF0E
:1015E600FF00000000A40104013101F10162014085
:1015F600015401FC60DAF266B6BEE0FEF6001E2E6D
:101606007C6E9E1CCE9C8EBC66C602612A3AEE019A
:00000001FF
