:100000000C945D000C9485000C9485000C94850084
:100010000C9485000C9485000C9485000C94C80306
:100020000C9485000C9485000C9485000C9485003C
:100030000C9485000C9485000C9485000C9485002C
:100040000C9426030C9485000C9496030C94700376
:100050000C9485000C9485000C9485000C9485000C
:100060000C9485000C9485000000000024002700FB
:100070002A0000000000250028002B0004040404CE
:100080000404040402020202020203030303030342
:10009000010204081020408001020408102001021F
:1000A00004081020000000080002010000030407FB
:1000B0000000000000000000510A11241FBECFEF15
:1000C000D8E0DEBFCDBF22E0A0E3B1E001C01D92C9
:1000D000AC31B207E1F711E0A0E0B1E0E0EAF5E110
:1000E00002C005900D92A033B107D9F710E0CDE51D
:1000F000D0E004C02197FE010E94B40ACC35D1079C
:10010000C9F70E941B040C94CE0A0C94000090E0E6
:10011000FC01EC55FF4F2491FC01E057FF4F349157
:10012000FC01E458FF4FE491EE23C9F0222339F09B
:10013000233001F1A8F4213019F1223029F1F0E047
:10014000EE0FFF1FEE58FF4FA591B4918FB7F894B3
:10015000EC91611126C030953E233C938FBF0895EA
:100160002730A9F02830C9F0243049F78091800069
:100170008F7D03C0809180008F7780938000DFCFD8
:1001800084B58F7784BDDBCF84B58F7DFBCF809125
:10019000B0008F778093B000D2CF8091B0008F7D78
:1001A000F9CF3E2BDACFCF93DF9390E0FC01E057FD
:1001B000FF4F249184589F4FFC0184918823D1F0F4
:1001C00090E0880F991FFC01E859FF4FA591B49169
:1001D000FC01EE58FF4FC591D49161110EC09FB73D
:1001E000F8948C91E22FE0958E238C932881E22362
:1001F000E8839FBFDF91CF9108958FB7F894EC917A
:10020000E22BEC938FBFF6CFAF92BF92CF92DF92EB
:10021000EF92FF920F931F93CF93DF936C017B01BB
:100220008B01040F151FEB015E01AE18BF08C0174C
:10023000D10759F06991D601ED91FC910190F081BF
:10024000E02DC6010995892B79F7C501DF91CF9182
:100250001F910F91FF90EF90DF90CF90BF90AF90E4
:100260000895FC01538D448D252F30E0842F90E0BC
:10027000821B930B541710F0CF96089501970895A1
:10028000FC01918D828D981761F0A28DAE0FBF2F6A
:10029000B11D5D968C91928D9F5F9F73928F90E0C0
:1002A00008958FEF9FEF0895FC01918D828D98172F
:1002B00031F0828DE80FF11D858D90E008958FEF6C
:1002C0009FEF0895FC01918D228D892F90E0805C35
:1002D0009F4F821B91098F739927089580E491E0C5
:1002E0000E94620121E0892B09F420E0822F089509
:1002F00080E090E0892B29F00E946E0181110C941E
:1003000000000895FC01A48DA80FB92FB11DA35AB8
:10031000BF4F2C91848D90E001968F739927848F25
:10032000A689B7892C93A089B1898C918370806448
:100330008C93938D848D981306C00288F389E02DE9
:1003400080818F7D80830895EF92FF920F931F939A
:10035000CF93DF93EC0181E0888F9B8D8C8D981378
:100360001AC0E889F989808185FF15C09FB7F89484
:10037000EE89FF896083E889F989808183708064D0
:1003800080839FBF81E090E0DF91CF911F910F911B
:10039000FF90EF900895F62E0B8D10E00F5F1F4F2A
:1003A0000F731127E02E8C8D8E110CC00FB607FC39
:1003B000FACFE889F989808185FFF5CFCE010E94C7
:1003C0008201F1CFEB8DEC0FFD2FF11DE35AFF4FB2
:1003D000F0829FB7F8940B8FEA89FB898081806255
:1003E000CFCFCF93DF93EC01888D8823B9F0AA8912
:1003F000BB89E889F9898C9185FD03C0808186FDE0
:100400000DC00FB607FCF7CF8C9185FFF2CF80812E
:1004100085FFEDCFCE010E948201E9CFDF91CF9120
:1004200008954F925F926F927F928F929F92AF92B8
:10043000BF92CF92DF92EF92FF92CF93DF93CDB72F
:10044000DEB728970FB6F894DEBF0FBECDBF6B01A5
:100450007C018091EE0187708130C9F018F0853001
:1004600008F46BC028960FB6F894DEBF0FBECDBF60
:10047000DF91CF91FF90EF90DF90CF90BF90AF9042
:100480009F908F907F906F905F904F900895C701DD
:1004900020EA36E841E050E00E94920A6AE0862EA7
:1004A000912CA12CB12CCA01B901A50194010E9483
:1004B000920A6093E301C701B60120E137E240E010
:1004C00050E00E94920ACA01B901A50194010E945C
:1004D000920A6093E401C701B60128EE33E040E0E0
:1004E00050E00E94920ACA01B901A50194010E943C
:1004F000920A6093E501C701B60124E630E040E0CE
:1005000050E00E94920ACA01B901A50194010E941B
:10051000920A6093E601C701B601A50194010E9409
:10052000920AF62ECA01B901A50194010E94920A0D
:100530006093E701F092E80195CFC70120E13EE02A
:1005400040E050E00E94920ACA01B90128E130E07F
:1005500040E050E00E94920A69837A838B839C83F7
:100560008CE3882E912CA12CB12CC701B601A501DA
:1005700094010E94920A6D837E838F839887CA01BB
:10058000B901A50194010E94920A2B013C019AE055
:10059000892E912CA12CB12C69817A818B819C812F
:1005A000A50194010E94920A2093E3016093E40163
:1005B000C301B201A50194010E94920A2093E501B2
:1005C0006093E6016D817E818F819885A5019401FC
:1005D0000E94920A2093E7016093E8018091EA016A
:1005E0009091EB01A091EC01B091ED01C816D906F4
:1005F000EA06FB06D1F08091EA019091EB01A0910F
:10060000EC01B091ED018C199D09AE09BF090B9762
:10061000A105B10508F426CFC092EA01D092EB0102
:10062000E092EC01F092ED011DCF8091EA019091F2
:10063000EB01A091EC01B091ED01A7019601281BFF
:10064000390B4A0B5B0BDA01C901E1CF1F920F9204
:100650000FB60F9211242F933F938F939F93AF93D5
:10066000BF938091180290911902A0911A02B09143
:100670001B023091170223E0230F2D3758F5019606
:10068000A11DB11D209317028093180290931902A7
:10069000A0931A02B0931B0280911302909114024E
:1006A000A0911502B09116020196A11DB11D809373
:1006B000130290931402A0931502B0931602BF91F7
:1006C000AF919F918F913F912F910F900FBE0F90FF
:1006D0001F90189526E8230F0296A11DB11DD2CFB9
:1006E0001F920F920FB60F9211242F933F934F93A7
:1006F0005F936F937F938F939F93AF93BF93EF938A
:10070000FF9380E491E00E948201FF91EF91BF91FD
:10071000AF919F918F917F916F915F914F913F9199
:100720002F910F900FBE0F901F9018951F920F9250
:100730000FB60F9211242F938F939F93EF93FF93F4
:10074000E0915001F09151018081E0915601F091CA
:10075000570182FD1BC09081809159018F5F8F737B
:1007600020915A01821741F0E0915901F0E0E05CDC
:10077000FE4F958F80935901FF91EF919F918F913B
:100780002F910F900FBE0F901F9018958081F4CF7E
:100790001F920F920FB60F9211242F933F934F93F6
:1007A0005F936F937F938F939F93AF93BF93EF93D9
:1007B000FF9380913101909132019C012F5F3F4F57
:1007C0003093320120933101883E934018F110920A
:1007D0003201109231019091300181E0911180E05D
:1007E00080933001609130018DE00E9487008091FC
:1007F000EE018770823070F06091EA017091EB0138
:100800008091EC019091ED016F5F7F4F8F4F9F4F73
:100810000E941102FF91EF91BF91AF919F918F9133
:100820007F916F915F914F913F912F910F900FBEEC
:100830000F901F901895789484B5826084BD84B51C
:10084000816084BD85B5826085BD85B5816085BDCB
:1008500080916E00816080936E0010928100809183
:10086000810082608093810080918100816080930B
:100870008100809180008160809380008091B10030
:1008800084608093B1008091B00081608093B0005B
:1008900080917A00846080937A0080917A008260EF
:1008A00080937A0080917A00816080937A008091B1
:1008B0007A00806880937A001092C100E091500124
:1008C000F091510182E08083E0914C01F0914D0163
:1008D0001082E0914E01F0914F018FEC80831092D5
:1008E0005801E0915401F091550186E08083E09138
:1008F0005201F0915301808180618083E091520127
:10090000F0915301808188608083E0915201F091E1
:100910005301808180688083E0915201F0915301FE
:1009200080818F7D808360E08EE00E94D30061E053
:1009300086E00E94D30061E087E00E94D30061E07E
:1009400088E00E94D30061E089E00E94D3008FEF2D
:100950008093E901F8941092B0001092B1001092C7
:10096000B20089EF8093B3008091B00082608093E1
:10097000B0008091B10084608093B10080917000DC
:1009800082608093700078943DEAC32E30E0D32ECD
:1009900040E4642E54E6E52EF12C00E010E07724CC
:1009A0007A942FB7F8948091180290911902A0912F
:1009B0001A02B0911B022FBF80930F029093100276
:1009C000A0931102B093120240910B0250910C02BD
:1009D00060910D0270910E02841B950BA60BB70B54
:1009E0004497A105B10508F4ACC080E491E00E94F1
:1009F0006201892B09F451C080E491E00E9440011A
:100A000090913F01983088F4E92FF0E0E65FFA4FCB
:100A10000C94B40A120507060A06120615061806F3
:100A20001B061E06853509F043C09F5F90933F016A
:100A3000983098F190913E0180913B01981325C028
:100A400080913C018093EE018090370190903801B5
:100A5000A0903901B0903A01809133019091340116
:100A6000A0913501B091360188169906AA06BB06F9
:100A700021F0C501B4010E941102809233019092CD
:100A80003401A0923501B092360110923F011092CC
:100A90003B0180E491E00E94F1018091EE01869596
:100AA000869586958370823009F0CBC07092E901FB
:100AB0008091E90120910001821B990B9093DE0146
:100AC0008093DD011816190644F42F5F209300016E
:100AD00001969093DE018093DD018091DD0190917C
:100AE000DE0197FF0AC020910001215020930001F0
:100AF00001979093DE018093DD018091F001C09118
:100B00000001D0E0882311F0CFEFD0E061E089E070
:100B10000E94D300209709F0D4C060E089E00E94D1
:100B2000870080910F0290911002A0911102B09164
:100B3000120280930B0290930C02A0930D02B093CB
:100B40000E022FB7F8948091180290911902A0918B
:100B50001A02B0911B022FBF8093070290930802E4
:100B6000A0930902B0930A0240910302509104023B
:100B70006091050270910602841B950BA60BB70BC2
:100B8000C297A105B10508F4B5C1F091EE01F77067
:100B90009091F301E091F4017091F2018091F601DE
:100BA0006091F7015091F5012091F9014091FA010E
:100BB0003091F801F23009F488C308F0C8C0FF236F
:100BC00009F45BC1F13009F4F5C3E078E160E0932A
:100BD000F4017F71706C7093F20190769D60909338
:100BE000F30160786F646093F7015F715068509310
:100BF000F501807683608093F601407847664093E4
:100C0000FA013F7130643093F801207633C180934C
:100C10003E010BCF80933D0120913B01820F8093D9
:100C20003B0103CF80933C01F7CF80933A01F4CF8F
:100C300080933901F1CF80933801EECF8093370153
:100C4000EBCF8091EE01869586958695837089F429
:100C500020913D0130E041E0429FC001439F900D53
:100C6000921B1124B7010E947E0A6F5F6093E90115
:100C70001FCF8091EE018695869586958370813091
:100C800009F016CF60927C0080917A008064809396
:100C90007A0080917A0086FDFCCF90917800809157
:100CA000790089279827892796958795969587951E
:100CB000803F28F08091E9018093E901F9CE80EF2F
:100CC000FBCFCF3FD10511F461E028CFF60184912D
:100CD000833019F140F48130B1F08230C9F0C0386E
:100CE000D10594F71ACF873011F1883041F1843063
:100CF000B1F780918000806280938000D0938B0058
:100D0000C0938A000ECF84B5806884BDC7BD09CF6B
:100D100084B5806284BDC8BD04CF809180008068A6
:100D200080938000D0938900C0938800FACE809190
:100D3000B00080688093B000C093B300F2CE809181
:100D4000B00080628093B000C093B400EACEF3306C
:100D500009F47AC2F43009F038CFA091E101B091E2
:100D6000E2011196A03BF4E0BF0708F03AC2B0934D
:100D7000E201A093E101A091DF01B091E001A43173
:100D8000B10508F437C28090EA019090EB01A09081
:100D9000EC01B090ED0189288A288B2809F42AC239
:100DA000A091E301B0E0AD5EBE4FFC91F0FB97F97E
:100DB0009093F301F695E078FE2BF093F401E09127
:100DC000E401F0E0ED5EFE4FE081FE2FF295FF0FB3
:100DD000F07E7F717F2B7093F201E695E695E695A4
:100DE000907E9E2B9093F301E091E501F0E0ED5EA3
:100DF000FE4F908190FB87F98093F601969560787D
:100E0000962B9093F701E091E601F0E0ED5EFE4F46
:100E10009081692F6295660F607E5F71562B5093AB
:100E2000F501969596959695807E892B8093F6018F
:100E3000E091E701F0E0ED5EFE4F808180FB27F955
:100E40002093F90186954078842B8093FA01E091F4
:100E5000E801F0E0ED5EFE4F8081982F9295990FAA
:100E6000907E3F71392B3093F80186958695869553
:100E7000207E282B2093F9012BC0E078E763E093D4
:100E8000F4017F71706C7093F2019076936190938E
:100E9000F30160786E606093F7015F715068509362
:100EA000F501807683608093F60140784E67409329
:100EB000FA013F7130623093F80120762C60209364
:100EC000F9018091EE01877E8093EE011092E90195
:100ED0001092F1018091070290910802A0910902FD
:100EE000B0910A028093030290930402A09305023A
:100EF000B09306028FB7F894809018029090190270
:100F0000A0901A02B0901B028FBF8092FF019092B6
:100F10000002A0920102B09202028091FB01909126
:100F2000FC01A091FD01B091FE01A5019401281BD7
:100F3000390B4A0B5B0BDA01C9018A3F9105A10508
:100F4000B10508F442C18091F40180688093F401F6
:100F50002091F3018091F70180688093F7019091CF
:100F6000F6018091FA0180688093FA018091F9017D
:100F7000206220642093F3012091F20120612093EC
:100F8000F201906290649093F6019091F501906166
:100F90009093F501806280648093F9018091F8015B
:100FA00080618093F801C4E0D0E060E087E00E94B7
:100FB00087006091F20170E00C2E02C07595679574
:100FC0000A94E2F7617086E00E94870061E087E0A2
:100FD0000E9487002196C830D10539F7D0E0C0E0E3
:100FE00060E087E00E9487006091F30170E00C2EC2
:100FF00002C0759567950A94E2F7617086E00E94D9
:10100000870061E087E00E9487002196C830D10503
:1010100039F7D0E0C0E060E087E00E94870060918F
:10102000F40170E00C2E02C0759567950A94E2F702
:10103000617086E00E94870061E087E00E9487007F
:101040002196C830D10539F7C4E0D0E060E087E0F0
:101050000E9487006091F50170E00C2E02C075952A
:1010600067950A94E2F7617086E00E94870061E06C
:1010700087E00E9487002196C830D10539F7D0E07B
:10108000C0E060E087E00E9487006091F60170E0B8
:101090000C2E02C0759567950A94E2F7617086E0A0
:1010A0000E94870061E087E00E9487002196C83097
:1010B000D10539F7D0E0C0E060E087E00E9487000A
:1010C0006091F70170E00C2E02C0759567950A9447
:1010D000E2F7617086E00E94870061E087E00E948D
:1010E00087002196C830D10539F7C4E0D0E060E030
:1010F00087E00E9487006091F80170E00C2E02C02A
:10110000759567950A94E2F7617086E00E94870002
:1011100061E087E00E9487002196C830D10539F749
:10112000D0E0C0E060E087E00E9487006091F901B4
:1011300070E00C2E02C0759567950A94E2F7617015
:1011400086E00E94870061E087E00E948700219688
:10115000C830D10539F7D0E0C0E060E087E00E94F8
:1011600087006091FA0170E00C2E02C075956795BA
:101170000A94E2F7617086E00E94870061E087E0F0
:101180000E9487002196C830D10539F761E088E0D8
:101190000E94870060E087E00E9487008091F10153
:1011A000882309F47BC18091F00191E08927809325
:1011B000F00160E088E00E9487008092FB0190923D
:1011C000FC01A092FD01B092FE010115110509F488
:1011D000E8CB0E946E01882309F4E3CB0E94000053
:1011E000E0CB1092E2011092E1011092E001109226
:1011F000DF01C1CDE078E561E093F4017F71706CAF
:101200007093F201907693619093F30160786F6030
:101210006093F7015F7150645093F50180768760A9
:101220008093F601407847644093FA013F71306C37
:101230003093F801207621612093F9011196B09343
:10124000E001A093DF0144CEA091E101B091E20161
:101250001196A03BF4E0BF0778F5B093E201A093AC
:10126000E101A091DF01B091E001A431B10508F0E6
:1012700097CDE078EE64E093F4017F717064709331
:10128000F201907697609093F301607865616093C6
:10129000F7015F71506C5093F50180768161809306
:1012A000F601407840634093FA013F713068309313
:1012B000F80120762761C0CF1092E2011092E1017F
:1012C0001092E0011092DF01CCCFA091E301B0E0D9
:1012D000AD5EBE4FFC91F0FB97F99093F301F6954C
:1012E000E078FE2BF093F401E091E401F0E0ED5E94
:1012F000FE4FE081FE2FF295FF0FF07E7F717F2B76
:101300007093F201E695E695E695907E9E2B90937C
:10131000F301E091E501F0E0ED5EFE4F908190FB7E
:1013200087F98093F60196956078962B9093F70154
:10133000E091E601F0E0ED5EFE4F9081692F62954D
:10134000660F607E5F71562B5093F50196959695CA
:101350009695807E892B8093F601E091E701F0E07D
:10136000ED5EFE4F808180FB27F92093F901869581
:101370004078842B8093FA01E091E801F0E0ED5E83
:10138000FE4F8081982F9295990F907E3F71392B57
:101390003093F801869586958695207E282B20939C
:1013A000F9011092E2011092E1011092E001109215
:1013B000DF018ECDA091E301B0E0AD5EBE4FFC91A8
:1013C000F0FB97F99093F301F695E078FE2BF093FC
:1013D000F401E091E401F0E0ED5EFE4FE081FE2FCC
:1013E000F295FF0FF07E7F717F2B7093F201E695EF
:1013F000E695E695907E9E2B9093F301E091E501B2
:10140000F0E0ED5EFE4F908180688093F601969546
:101410006078692B6093F701E091E601F0E0ED5E02
:10142000FE4F9081692F6295660F607E5F71562B2B
:101430005093F501969596959695807E892B80938D
:10144000F601E091E701F0E0ED5EFE4F808180FB68
:1014500027F92093F90186954078842B8093FA012F
:10146000E091E801F0E0ED5EFE4F80818160982F11
:101470009295990F907E3F71392B3093F8018695A4
:1014800086958695207E282B2093F9018091EE0188
:10149000877E8093EE011092E90183CF1092F001D4
:1014A00088CEE0E4F1E01382128288EE93E0A0E0BF
:1014B000B0E084839583A683B78385E091E0918330
:1014C000808385EC90E09587848784EC90E0978713
:1014D000868780EC90E0918B808B81EC90E0938B01
:1014E000828B82EC90E0958B848B86EC90E0978BDE
:1014F000868B118E128E138E148E089597FB072EF5
:1015000016F4009407D077FD09D00E94BA0A07FCB0
:1015100005D03EF4909581959F4F08957095619503
:101520007F4F0895A1E21A2EAA1BBB1BFD010DC01F
:10153000AA1FBB1FEE1FFF1FA217B307E407F50783
:1015400020F0A21BB30BE40BF50B661F771F881F5F
:10155000991F1A9469F760957095809590959B01F5
:10156000AC01BD01CF010895EE0FFF1F0590F4916E
:10157000E02D0994AA1BBB1B51E107C0AA1FBB1F8A
:10158000A617B70710F0A61BB70B881F991F5A950F
:10159000A9F780959095BC01CD010895F894FFCFEF
:1015A000FF00000000A40104013101F101620140CB
:1015B000015401FC60DAF266B6BEE0FEF6001E2EB3
:1015C0007C6E9E1CCE9C8EBC66C602612A3AEE01E1
:00000001FF
