:100000000C945D000C9485000C9485000C94850084
:100010000C9485000C9485000C9485000C94AC0421
:100020000C9485000C9485000C9485000C9485003C
:100030000C9485000C9485000C9485000C9485002C
:100040000C940A040C9485000C947A040C945404C7
:100050000C9485000C9485000C9485000C9485000C
:100060000C9485000C9485000000000024002700FB
:100070002A0000000000250028002B0004040404CE
:100080000404040402020202020203030303030342
:10009000010204081020408001020408102001021F
:1000A00004081020000000080002010000030407FB
:1000B0000000000000000000C00B11241FBECFEFA5
:1000C000D8E0DEBFCDBF22E0AAEAB1E001C01D92B8
:1000D000AB39B207E1F711E0A0E0B1E0E0EDFCE1FF
:1000E00002C005900D92AA3AB107D9F710E0CDE50C
:1000F000D0E004C02197FE010E945A0CCC35D107F4
:10010000C9F70E94FF040C94660E0C94000090E066
:10011000FC01EC55FF4F2491FC01E057FF4F349157
:10012000FC01E458FF4FE491EE23C9F0222339F09B
:10013000233001F1A8F4213019F1223029F1F0E047
:10014000EE0FFF1FEE58FF4FA591B4918FB7F894B3
:10015000EC91611126C030953E233C938FBF0895EA
:100160002730A9F02830C9F0243049F78091800069
:100170008F7D03C0809180008F7780938000DFCFD8
:1001800084B58F7784BDDBCF84B58F7DFBCF809125
:10019000B0008F778093B000D2CF8091B0008F7D78
:1001A000F9CF3E2BDACFCF93DF9390E0FC01E057FD
:1001B000FF4F249184589F4FFC0184918823D1F0F4
:1001C00090E0880F991FFC01E859FF4FA591B49169
:1001D000FC01EE58FF4FC591D49161110EC09FB73D
:1001E000F8948C91E22FE0958E238C932881E22362
:1001F000E8839FBFDF91CF9108958FB7F894EC917A
:10020000E22BEC938FBFF6CFAF92BF92CF92DF92EB
:10021000EF92FF920F931F93CF93DF936C017B01BB
:100220008B01040F151FEB015E01AE18BF08C0174C
:10023000D10759F06991D601ED91FC910190F081BF
:10024000E02DC6010995892B79F7C501DF91CF9182
:100250001F910F91FF90EF90DF90CF90BF90AF90E4
:100260000895FC01538D448D252F30E0842F90E0BC
:10027000821B930B541710F0CF96089501970895A1
:10028000FC01918D828D981761F0A28DAE0FBF2F6A
:10029000B11D5D968C91928D9F5F9F73928F90E0C0
:1002A00008958FEF9FEF0895FC01918D828D98172F
:1002B00031F0828DE80FF11D858D90E008958FEF6C
:1002C0009FEF0895FC01918D228D892F90E0805C35
:1002D0009F4F821B91098F73992708958AEF91E0B0
:1002E0000E94620121E0892B09F420E0822F089509
:1002F00080E090E0892B29F00E946E0181110C941E
:1003000000000895FC01A48DA80FB92FB11DA35AB8
:10031000BF4F2C91848D90E001968F739927848F25
:10032000A689B7892C93A089B1898C918370806448
:100330008C93938D848D981306C00288F389E02DE9
:1003400080818F7D80830895EF92FF920F931F939A
:10035000CF93DF93EC0181E0888F9B8D8C8D981378
:100360001AC0E889F989808185FF15C09FB7F89484
:10037000EE89FF896083E889F989808183708064D0
:1003800080839FBF81E090E0DF91CF911F910F911B
:10039000FF90EF900895F62E0B8D10E00F5F1F4F2A
:1003A0000F731127E02E8C8D8E110CC00FB607FC39
:1003B000FACFE889F989808185FFF5CFCE010E94C7
:1003C0008201F1CFEB8DEC0FFD2FF11DE35AFF4FB2
:1003D000F0829FB7F8940B8FEA89FB898081806255
:1003E000CFCFCF93DF93EC01888D8823B9F0AA8912
:1003F000BB89E889F9898C9185FD03C0808186FDE0
:100400000DC00FB607FCF7CF8C9185FFF2CF80812E
:1004100085FFEDCFCE010E948201E9CFDF91CF9120
:1004200008959091CC0196959695969593709230FB
:1004300021F48FEF8093C70108959091CC01969598
:1004400096959695937089F4282F30E041E0429F6D
:10045000C001439F900D921B112464E670E00E943E
:10046000240C6F5F6093C70108958091CC0186953D
:100470008695869583708130F9F680E480937C00C0
:1004800080917A00806480937A0080917A0086FD62
:10049000FCCF90917800809179008927982789274F
:1004A0009695879596958795803F18F08091C7011E
:1004B000C1CF80EFBFCF4F925F926F927F928F92AA
:1004C0009F92AF92BF92CF92DF92EF92FF92CF9323
:1004D000DF93CDB7DEB728970FB6F894DEBF0FBE17
:1004E000CDBF6B017C018091CC0187708130C9F058
:1004F00018F0853008F46BC028960FB6F894DEBF6C
:100500000FBECDBFDF91CF91FF90EF90DF90CF90E6
:10051000BF90AF909F908F907F906F905F904F9023
:100520000895C70120EA36E841E050E00E94380C07
:100530006AE0862E912CA12CB12CCA01B901A5012B
:1005400094010E94380C6093C101C701B60120E1FB
:1005500037E240E050E00E94380CCA01B901A50121
:1005600094010E94380C6093C201C701B60128EEC5
:1005700033E040E050E00E94380CCA01B901A50107
:1005800094010E94380C6093C301C701B60124E6B0
:1005900030E040E050E00E94380CCA01B901A501EA
:1005A00094010E94380C6093C401C701B601A501F3
:1005B00094010E94380CF62ECA01B901A5019401DC
:1005C0000E94380C6093C501F092C60195CFC70117
:1005D00020E13EE040E050E00E94380CCA01B90141
:1005E00028E130E040E050E00E94380C69837A83D3
:1005F0008B839C838CE3882E912CA12CB12CC7017A
:10060000B601A50194010E94380C6D837E838F830F
:100610009887CA01B901A50194010E94380C2B01E9
:100620003C019AE0892E912CA12CB12C69817A8110
:100630008B819C81A50194010E94380C2093C101FB
:100640006093C201C301B201A50194010E94380C5C
:100650002093C3016093C4016D817E818F81988551
:10066000A50194010E94380C2093C5016093C60136
:100670008091C8019091C901A091CA01B091CB01AC
:10068000C816D906EA06FB06D1F08091C801909100
:10069000C901A091CA01B091CB018C199D09AE0985
:1006A000BF090B97A105B10508F426CFC092C80178
:1006B000D092C901E092CA01F092CB011DCF809186
:1006C000C8019091C901A091CA01B091CB01A701C5
:1006D0009601281B390B4A0B5B0BDA01C901E1CFEC
:1006E000FC0101900020E9F73197AF01481B590B3D
:1006F000BC018AEF91E00C9404018F929F92AF921B
:10070000BF920F931F93CF93DF93CDB7DEB7A1971F
:100710000FB6F894DEBF0FBECDBF19A2423008F469
:100720004AE08E010F5D1F4F842E912CB12CA12C1D
:10073000A50194010E94380CE62FB901CA01EA30E4
:10074000F4F4E05DD801EE938D01232B242B252BAF
:1007500079F790E080E0109719F0CD010E947003C6
:10076000A1960FB6F894DEBF0FBECDBFDF91CF913B
:100770001F910F91BF90AF909F908F900895E95C6B
:10078000E1CFEF92FF920F931F93CF93DF93EC0192
:100790007B01198218821B821A821D821C82FB0136
:1007A00001900020E9F731978F01061B170BB80164
:1007B0006F5F7F4F90E080E00E94990D0097B9F045
:1007C000998388831B830A832C813D81232B11F419
:1007D000FC0110821D830C83B70188819981DF9110
:1007E000CF911F910F91FF90EF900C945F0E888135
:1007F0009981009711F00E94100D198218821D82B4
:100800001C821B821A82DF91CF911F910F91FF9062
:10081000EF9008951F920F920FB60F9211242F930D
:100820003F938F939F93AF93BF938091F6019091E5
:10083000F701A091F801B091F9013091F50123E0A1
:10084000230F2D3758F50196A11DB11D2093F501F9
:100850008093F6019093F701A093F801B093F9010A
:100860008091F1019091F201A091F301B091F40116
:100870000196A11DB11D8093F1019093F201A09307
:10088000F301B093F401BF91AF919F918F913F918C
:100890002F910F900FBE0F901F90189526E8230FF1
:1008A0000296A11DB11DD2CF1F920F920FB60F92CB
:1008B00011242F933F934F935F936F937F938F9365
:1008C0009F93AF93BF93EF93FF938AEF91E00E94C2
:1008D0008201FF91EF91BF91AF919F918F917F9195
:1008E0006F915F914F913F912F910F900FBE0F909D
:1008F0001F9018951F920F920FB60F9211242F93ED
:100900008F939F93EF93FF93E0910A02F0910B0274
:100910008081E0911002F091110282FD1BC0908154
:10092000809113028F5F8F7320911402821741F020
:10093000E0911302F0E0E650FE4F958F8093130292
:10094000FF91EF919F918F912F910F900FBE0F907C
:100950001F9018958081F4CF1F920F920FB60F92BF
:1009600011242F933F934F935F936F937F938F93B4
:100970009F93AF93BF93EF93FF938091AB019091BF
:10098000AC019C012F5F3F4F3093AC012093AB0132
:10099000883E934018F11092AC011092AB019091F7
:1009A000AA0181E0911180E08093AA016091AA01DF
:1009B0008DE00E9487008091CC018770823070F0BA
:1009C0006091C8017091C9018091CA019091CB01D9
:1009D0006F5F7F4F8F4F9F4F0E945B02FF91EF91A0
:1009E000BF91AF919F918F917F916F915F914F9147
:1009F0003F912F910F900FBE0F901F901895CF939E
:100A0000DF9300D000D000D0CDB7DEB7789484B5A6
:100A1000826084BD84B5816084BD85B5826085BDFA
:100A200085B5816085BD80916E00816080936E0088
:100A3000109281008091810082608093810080917A
:100A4000810081608093810080918000816080932B
:100A500080008091B10084608093B1008091B000EB
:100A600081608093B00080917A00846080937A00E6
:100A700080917A00826080937A0080917A00816010
:100A800080937A0080917A00806880937A00109237
:100A9000C100E0910A02F0910B0282E08083E091B4
:100AA0000602F09107021082E0910802F09109021B
:100AB0008FEC808310921202E0910E02F0910F02EF
:100AC00086E08083E0910C02F0910D0280818061CC
:100AD0008083E0910C02F0910D0280818860808318
:100AE000E0910C02F0910D02808180688083E0919A
:100AF0000C02F0910D0280818F7D808360E08EE09A
:100B00000E94D30061E086E00E94D30061E087E0AC
:100B10000E94D30061E088E00E94D30061E089E098
:100B20000E94D3008FEF8093C701F8941092B00019
:100B30001092B1001092B20089EF8093B3008091BF
:100B4000B00082608093B0008091B1008460809397
:100B5000B1008091700082608093700078948DEA7B
:100B6000C82E80E0D82E90E0E92E90E0F92E2FB725
:100B7000F8948091F6019091F701A091F801B0915D
:100B8000F9012FBF8093ED019093EE01A093EF0147
:100B9000B093F0014091E9015091EA016091EB01BD
:100BA0007091EC01841B950BA60BB70B4497A10524
:100BB000B10508F44EC18AEF91E00E946201892BD1
:100BC00009F4F2C08AEF91E00E9440019091B901CE
:100BD000983088F4E92FF0E0E051FA4F0C945A0C69
:100BE000F8057D06800688068B068E06910694061B
:100BF000853509F0E4C09F5F9093B901983008F4FF
:100C0000D3C09091B8018091B5019813C5C080916F
:100C1000B6018093CC018091B7010E9411028090AF
:100C2000B1019090B201A090B301B090B401809155
:100C3000AD019091AE01A091AF01B091B0018816C5
:100C40009906AA06BB0621F0C501B4010E945B0209
:100C50008092AD019092AE01A092AF01B092B0012E
:100C600086E391E00E9470038091CC018695869581
:100C70008695837067E471E0813051F060E471E043
:100C8000813030F061E571E0823011F068EA71E0A6
:100C9000CE0101960E94C1034D815E8169817A81F6
:100CA0008AEF91E00E94040189819A81009711F0F6
:100CB0000E94100D85E591E00E9470036091CD01C6
:100CC00070E090E080E04AE00E947D0383E691E0DE
:100CD0000E9470038091CC0187706BE871E08230D4
:100CE00091F128F563E771E0882369F169E771E024
:100CF000813049F168EA71E026C08093B8017BCF6A
:100D00008093B7012091B501820F8093B50173CF15
:100D10008093B601F7CF8093B401F4CF8093B301F1
:100D2000F1CF8093B201EECF8093B101EBCF6CE7AE
:100D300071E0843041F06FE771E0843020F061E9C8
:100D400071E08530B9F6CE0101960E94C1034D8154
:100D50005E8169817A818AEF91E00E940401898134
:100D60009A81009711F00E94100D85E991E00E9490
:100D700070036091B1017091B2018091B3019091C3
:100D8000B4014AE00E947D0383EA91E00E9470036F
:100D900086EA91E00E9470031092B9011092B501A9
:100DA0008AEF91E00E94F1018091CC0186958695B1
:100DB00086958370813019F48FEF0E941102809123
:100DC000C70120910001821B990B9093BB01809376
:100DD000BA011816190644F42F5F209300010196FA
:100DE0009093BB018093BA018091BA019091BB01AD
:100DF00097FF0AC020910001215020930001019724
:100E00009093BB018093BA018091CE0100910001C3
:100E100010E0882311F00FEF10E061E089E00E94FC
:100E2000D3000115110509F07EC060E089E00E9441
:100E300087008091ED019091EE01A091EF01B091BA
:100E4000F0018093E9019093EA01A093EB01B09344
:100E5000EC012FB7F8948091F6019091F701A091E1
:100E6000F801B091F9012FBF8093E5019093E6015D
:100E7000A093E701B093E8014091E1015091E201B4
:100E80006091E3017091E401841B950BA60BB70BF5
:100E9000C297A105B10508F4B6C17091CC01777075
:100EA0008091D1016091D2015091D0012091D40163
:100EB0004091D5013091D301F091D7019091D801A3
:100EC000E091D601723009F464C308F072C0772350
:100ED00009F49CC0713009F4D6C3607861606093F6
:100EE000D2015F71506C5093D001582F50765D60E5
:100EF0005093D10140784F644093D5013F713068E1
:100F00003093D301207623602093D40190789766A4
:100F10009093D8018E2F8F7180648093D601F076E4
:100F2000F093D7015EC10F3F110511F461E07ECF50
:100F3000F6018491833019F140F48130B1F08230B0
:100F4000C9F00038110594F770CF873011F188305F
:100F500041F18430B1F780918000806280938000FD
:100F600010938B0000938A0064CF84B5806884BDA1
:100F700007BD5FCF84B5806284BD08BD5ACF809124
:100F8000800080688093800010938900009388001F
:100F900050CF8091B00080688093B0000093B30080
:100FA00048CF8091B00080628093B0000093B4007D
:100FB00040CF743009F45AC008F4A5C2753009F066
:100FC0008CCF1092C00160786E676093D2015F7120
:100FD000506C5093D001807683608093D10140782B
:100FE00047674093D5013F7130623093D30120763B
:100FF0002093D4012F2F206890789093D8018E2FC2
:101000008F7180628093D601207E26C01092C0012D
:10101000607867636093D2015F71506C5093D00128
:10102000807683618093D10140784E604093D501F2
:101030003F7130683093D301207623602093D40130
:1010400090789E679093D8018E2F8F7180628093E5
:10105000D6012F2F20762C602093D7018091CC01D0
:10106000877E8093CC011092C701BBC0A091BE01C6
:10107000B091BF011196A03B74E0B707D8F5B093CB
:10108000BF01A093BE01A091BC01B091BD01AC33E2
:10109000B10520F07091C001711135C060786561B3
:1010A0006093D2015F71506C5093D0018076836160
:1010B0008093D10140784F604093D5013F713064F7
:1010C0003093D301207627602093D40190789764E1
:1010D0009093D8018E2F8F71806C8093D6012F2F23
:1010E000207621612093D7011196B093BD01A09382
:1010F000BC0177C01092BF011092BE011092BD01D9
:101100001092BC01C0CFA091C101B0E0A75EBE4F5C
:101110007C9170FB87F98093D10176956078762B6E
:101120007093D201A091C201B0E0A75EBE4F6C9156
:10113000762F7295770F707E5F71572B5093D00189
:10114000669566956695807E862B8093D101A091E9
:10115000C301B0E0A75EBE4F8C9180FB27F92093BE
:10116000D40186954078842B8093D501A091C40149
:10117000B0E0A75EBE4F5C91852F8295880F807E80
:101180003F71382B3093D301569556955695207E56
:10119000252B2093D401A091C501B0E0A75EBE4FDE
:1011A0008C912F2F80FB27F92093D701869590787B
:1011B000892B8093D801A091C601B0E0A75EBE4FF5
:1011C000FC919F2F9295990F907E8E2F8F71892B76
:1011D0008093D601F695F695F695207E2F2B2093D9
:1011E000D7011092CF018091E5019091E601A09185
:1011F000E701B091E8018093E1019093E201A093AF
:10120000E301B093E4018FB7F8948090F6019090D9
:10121000F701A090F801B090F9018FBF8092DD0135
:101220009092DE01A092DF01B092E0018091D9019D
:101230009091DA01A091DB01B091DC01A50194014C
:10124000281B390B4A0B5B0BDA01C9018A3F910558
:10125000A105B10508F44BC18091D201806880934B
:10126000D2012091D1018091D50180688093D50170
:101270009091D4018091D80180688093D8018091A9
:10128000D701206220642093D1012091D0012061F8
:101290002093D001906290649093D4019091D301F7
:1012A00090619093D301806280648093D701809194
:1012B000D60180618093D60104E010E060E087E011
:1012C0000E9487006091D00170E0002E02C07595E9
:1012D00067950A94E2F7617086E00E94870061E0FA
:1012E00087E00E9487000F5F1F4F0830110531F71C
:1012F00010E000E060E087E00E9487006091D1018B
:1013000070E0002E02C0759567950A94E2F761704F
:1013100086E00E94870061E087E00E9487000F5FFF
:101320001F4F0830110531F710E000E060E087E062
:101330000E9487006091D20170E0002E02C0759576
:1013400067950A94E2F7617086E00E94870061E089
:1013500087E00E9487000F5F1F4F0830110531F7AB
:1013600004E010E060E087E00E9487006091D30114
:1013700070E0002E02C0759567950A94E2F76170DF
:1013800086E00E94870061E087E00E9487000F5F8F
:101390001F4F0830110531F710E000E060E087E0F2
:1013A0000E9487006091D40170E0002E02C0759504
:1013B00067950A94E2F7617086E00E94870061E019
:1013C00087E00E9487000F5F1F4F0830110531F73B
:1013D00010E000E060E087E00E9487006091D501A6
:1013E00070E0002E02C0759567950A94E2F761706F
:1013F00086E00E94870061E087E00E9487000F5F1F
:101400001F4F0830110531F704E010E060E087E07D
:101410000E9487006091D60170E0002E02C0759591
:1014200067950A94E2F7617086E00E94870061E0A8
:1014300087E00E9487000F5F1F4F0830110531F7CA
:1014400010E000E060E087E00E9487006091D70133
:1014500070E0002E02C0759567950A94E2F76170FE
:1014600086E00E94870061E087E00E9487000F5FAE
:101470001F4F0830110531F710E000E060E087E011
:101480000E9487006091D80170E0002E02C075951F
:1014900067950A94E2F7617086E00E94870061E038
:1014A00087E00E9487000F5F1F4F0830110531F75A
:1014B00061E088E00E94870060E087E00E9487008A
:1014C0008091CF01882309F458C18091CE0191E029
:1014D00089278093CE0160E088E00E948700809297
:1014E000D9019092DA01A092DB01B092DC01E11403
:1014F000F10409F43CCB0E946E01882309F437CB38
:101500000E94000034CBA091BE01B091BF011196A2
:10151000A03B74E0B707A0F5B093BF01A093BE0154
:10152000A091BC01B091BD01AC33B10520F0709128
:10153000C0017111E8CD60786E646093D2015F7173
:1015400050645093D001807687608093D1014078B9
:1015500045614093D5013F71306C3093D3012076C3
:1015600021612093D401907890639093D8018E2FBD
:101570008F7180688093D6012F2F20762761B2CD9E
:101580001092BF011092BE011092BD011092BC01D9
:10159000C7CF71E07093C001A091C101B0E0A75E18
:1015A000BE4F7C9170FB87F98093D101769560786E
:1015B000762B7093D201A091C201B0E0A75EBE4F1E
:1015C0006C91762F7295770F707E5F71572B5093C9
:1015D000D001669566956695807E862B8093D101B5
:1015E000A091C301B0E0A75EBE4F8C9180FB27F9AC
:1015F0002093D40186954078842B8093D501A091C7
:10160000C401B0E0A75EBE4F5C91852F8295880F24
:10161000807E3F71382B3093D30156955695569561
:10162000207E252B2093D401A091C501B0E0A75EB8
:10163000BE4F8C912F2F80FB27F92093D7018695E1
:101640009078892B8093D801A091C601B0E0A75E65
:10165000BE4FFC919F2F9295990F907E8E2F8F7188
:10166000892B8093D601F695F695F695207E2F2B43
:101670002093D7011092BF011092BE011092BD01BC
:101680001092BC01AECDA091C101B0E0A75EBE4FEB
:10169000AC91782FA0FB77F97093D101A695607873
:1016A000A62BA093D201A091C201B0E0A75EBE4FCD
:1016B0008C91682F6295660F607E5F71562B5093F8
:1016C000D001582F569556955695872F807E852B9D
:1016D0008093D101A091C301B0E0A75EBE4F8C9171
:1016E000522F50685093D40186954078482B4093F0
:1016F000D501A091C401B0E0A75EBE4F2C91822F0E
:101700008295880F807E3F71382B3093D3012695C8
:1017100026952695507E522B5093D401A091C50159
:10172000B0E0A75EBE4F8C912F2F80FB27F920934E
:10173000D70186959078892B8093D801A091C60116
:10174000B0E0A75EBE4F9C919160392F3295330F68
:10175000307E8E2F8F71832B8093D6019695969530
:101760009695207E292B2093D7018091CC01877EEE
:101770008093CC011092C7017DCF1092CE01ABCEE9
:10178000EAEFF1E01382128288EE93E0A0E0B0E08D
:1017900084839583A683B7838BE091E091838083D4
:1017A00085EC90E09587848784EC90E09787868726
:1017B00080EC90E0918B808B81EC90E0938B828B1E
:1017C00082EC90E0958B848B86EC90E0978B868BF7
:1017D000118E128E138E148E08952F923F924F9277
:1017E0005F926F927F928F929F92AF92BF92CF92B1
:1017F000DF92EF92FF920F931F93CF93DF93CDB7BA
:10180000DEB7CA1BDB0B0FB6F894DEBF0FBECDBF31
:1018100009942A88398848885F846E847D848C8402
:101820009B84AA84B984C884DF80EE80FD800C810B
:101830001B81AA81B981CE0FD11D0FB6F894DEBFEE
:101840000FBECDBFED01089597FB072E16F400944F
:1018500007D077FD09D00E94600C07FC05D03EF44C
:10186000909581959F4F0895709561957F4F08954C
:10187000A1E21A2EAA1BBB1BFD010DC0AA1FBB1F94
:10188000EE1FFF1FA217B307E407F50720F0A21B06
:10189000B30BE40BF50B661F771F881F991F1A9473
:1018A00069F760957095809590959B01AC01BD019D
:1018B000CF010895EE0FFF1F0590F491E02D0994DC
:1018C000AA1BBB1B51E107C0AA1FBB1FA617B70766
:1018D00010F0A61BB70B881F991F5A95A9F7809582
:1018E0009095BC01CD0108950F931F93CF93DF9383
:1018F0008230910510F482E090E0E0919902F0913D
:101900009A0230E020E0B0E0A0E0309799F4211591
:10191000310509F44AC0281B390B24303105D8F5AC
:101920008A819B816115710589F1FB019383828313
:10193000FE0111C04081518102811381481759076E
:10194000E0F04817590799F4109761F012960C933C
:10195000129713961C933296CF01DF91CF911F916E
:101960000F9108950093990210939A02F4CF2115D4
:10197000310551F04217530738F0A901DB019A01F4
:10198000BD01DF01F801C1CFEF01F9CF90939A02B9
:1019900080939902CDCFFE01E20FF31F81939193C3
:1019A0002250310939832883D7CF20919702309173
:1019B0009802232B41F420910301309104013093CC
:1019C0009802209397022091010130910201211584
:1019D000310541F42DB73EB7409105015091060104
:1019E000241B350BE0919702F0919802E217F30760
:1019F000A0F42E1B3F0B2817390778F0AC014E5F7F
:101A00005F4F2417350748F04E0F5F1F5093980221
:101A100040939702819391939FCFF0E0E0E09CCFB9
:101A2000CF93DF930097E9F0FC0132971382128283
:101A3000A0919902B0919A02ED0130E020E0109758
:101A4000A1F420813181820F931F20919702309160
:101A500098022817390709F061C0F0939802E093C3
:101A60009702DF91CF910895EA01CE17DF07E8F5DD
:101A70004A815B819E0141155105B1F7E901FB8364
:101A8000EA8349915991C40FD51FEC17FD0761F402
:101A9000808191810296840F951FE9019983888343
:101AA000828193819B838A83F0E0E0E012968D919E
:101AB0009C9113970097B9F52D913C911197CD0109
:101AC0000296820F931F2091970230919802281757
:101AD000390739F6309751F510929A02109299020F
:101AE000B0939802A0939702BCCFD383C283408166
:101AF0005181840F951FC817D90761F44E5F5F4F5E
:101B000088819981480F591F518340838A819B8125
:101B1000938382832115310509F0B0CFF0939A02A7
:101B2000E09399029ECFFD01DC01C0CF13821282A7
:101B3000D7CFB0E0A0E0EFE9FDE00C94EF0B8C0113
:101B4000009751F4CB010E94740C8C01C801CDB7F1
:101B5000DEB7E0E10C940B0CFC01E60FF71F9C01D3
:101B600022503109E217F30708F49DC0D901CD9145
:101B7000DC911197C617D70798F0C530D10530F31F
:101B8000CE0104978617970708F3C61BD70B229739
:101B9000C193D1936D937C93CF010E94100DD6CF4A
:101BA0005B01AC1ABD0A4C018C0E9D1EA0919902DE
:101BB000B0919A02512C412CF12CE12C109731F567
:101BC00080919702909198028815990509F05CC060
:101BD0004616570608F058C0809101019091020105
:101BE000009741F48DB79EB74091050150910601D1
:101BF000841B950BE817F90708F055C0F09398027D
:101C0000E0939702F90171836083A0CF8D919C913D
:101C1000119712966C90129713967C901397A815B3
:101C2000B90559F56C0142E0C40ED11CCA14DB049D
:101C300020F1AC014A195B09DA011296159780F080
:101C40006282738251834083D9016D937C93E11446
:101C5000F10471F0D7011396FC93EE93129776CFAF
:101C600022968C0F9D1FF90191838083F301EFCFA2
:101C7000F0939A02E093990269CF4816590608F446
:101C80002C017D01D3019ACFCB010E94740C7C0101
:101C9000009749F0AE01B8010E94560EC8010E949B
:101CA000100D870153CF10E000E050CFFB01DC01A5
:101CB00002C001900D9241505040D8F70895FB01A9
:101CC000DC0101900D920020E1F70895F894FFCF18
:101CD000FF00009B02800000000000A4010401310D
:101CE00001F101620140015401FC60DAF266B6BE06
:101CF000E0FEF6001E2E7C6E9E1CCE9C8EBC66C640
:101D000002612A3AEE010A7C204D6F64653A200098
:101D10004D616E75616C004175746F6D61746963BE
:101D2000004F6666007C20496E74656E7369747935
:101D30003A20007C20436C6F636B205374617465A0
:101D40003A200053746172740049500041500053AE
:101D5000657276657220446F776E0056616C6964B7
:101D6000004F5441007C2054696D657374616D703F
:0A1D70003A2000207C000D0A00005C
:00000001FF
